:100000000C942A000C9447000C9447000C94470071
:100010000C9447000C9447000C9447000C94470044
:100020000C9447000C9447000C9447000C94470034
:100030000C9447000C9447000C9447000C94470024
:100040000C9447000C9447000C9447000C94470014
:100050000C94470011241FBECFE5D8E0DEBFCDBF12
:1000600010E0A0E6B0E0E8ECFAE202C005900D92E4
:10007000A837B107D9F710E0A8E7B0E001C01D929A
:10008000AA37B107E1F70E947C140C9462150C9416
:100090000000EF92FF920F931F937B018C0120E0F1
:1000A00030E040E05FE40E94490388238CF0C801FF
:1000B000B70120E030E040E05FE40E94C1010E940F
:1000C000A9039B01AC01205030404040504806C07D
:1000D000C801B7010E94A9039B01AC01B901CA0183
:1000E0001F910F91FF90EF900895A0E0B0E0EBE733
:1000F000F0E00C94C014DC012B01FA019C919230C9
:1001000008F439C1EB018881823008F433C194309E
:1001100069F4843009F02FC111969C91119789815F
:10012000981709F428C1A0E6B0E025C1843009F48D
:1001300021C18230A9F4923009F01DC19A01AD01AC
:1001400088E0EA010990AE01E90109929E0181501F
:10015000C1F7E201898111969C918923818308C1AD
:10016000923009F407C112962D903C901397EB0141
:100170008A819B811496AD90BD90CD90DC901797AD
:10018000EC80FD800E811F819101281B390BB90184
:1001900037FF04C066277727621B730B6032710537
:1001A0000CF061C0121613066CF537014801062EDB
:1001B00004C096948794779467940A94D2F721E0C8
:1001C00030E040E050E004C0220F331F441F551FB1
:1001D0006A95D2F721503040404050402E213F21B7
:1001E00040235123211531054105510521F021E01E
:1001F00030E040E050E079018A01E628F72808293C
:1002000019293CC0232BD1F1260E371E350146019A
:10021000062E04C096948794779467940A94D2F734
:1002200021E030E040E050E004C0220F331F441FC3
:10023000551F6A95D2F721503040404050402A2146
:100240003B214C215D21211531054105510521F04E
:1002500021E030E040E050E059016A01A628B728CB
:10026000C828D9280BC0821593052CF01C01AA249C
:10027000BB24650103C0EE24FF24870111969C91E5
:10028000D20111968C91981709F445C0992339F041
:10029000A80197012A193B094C095D0906C0A6016E
:1002A00095012E193F09400B510B57FD08C01182D3
:1002B0003382228224833583468357831DC081E0A5
:1002C00081833382228288279927DC01821B930B4A
:1002D000A40BB50B84839583A683B7830DC0220F2F
:1002E000331F441F551F24833583468357838281E0
:1002F000938101979383828324813581468157813D
:10030000DA01C9010197A109B1098F5F9F4FAF4F72
:10031000BF4328F30BC0918333822282EA0CFB1C7B
:100320000C1D1D1DE482F5820683178383E0808304
:10033000248135814681578157FF1AC0C901AA27F8
:1003400097FDA095BA2F81709070A070B0705695EF
:10035000479537952795822B932BA42BB52B848318
:100360009583A683B7838281938101969383828349
:10037000DF0101C0D201CD01CDB7DEB7E2E10C94BF
:10038000DC14A0E2B0E0E7ECF1E00C94CC1469835B
:100390007A838B839C832D833E834F835887E9E048
:1003A000EE2EF12CEC0EFD1ECE010196B7010E943F
:1003B000D2048E010F5E1F4FCE010596B8010E9438
:1003C000D2048A8991E089278A8BC701B801AE01DE
:1003D000475E5F4F0E9475000E94FD03A096E6E015
:1003E0000C94E814A0E2B0E0E8EFF1E00C94CC1437
:1003F00069837A838B839C832D833E834F835887C5
:10040000F9E0EF2EF12CEC0EFD1ECE010196B701A6
:100410000E94D2048E010F5E1F4FCE010596B801D7
:100420000E94D204C701B801AE01475E5F4F0E942F
:1004300075000E94FD03A096E6E00C94E814A0E28B
:10044000B0E0E5E2F2E00C94C01469837A838B8318
:100450009C832D833E834F835887CE010196BE0136
:10046000675F7F4F0E94D204CE010596BE016F5E8A
:100470007F4F0E94D2049985923088F0898982301A
:10048000C8F0943019F4823051F404C0843029F457
:10049000923081F480E690E0C6C0923049F420E0CA
:1004A0009A858A89981321E02A87CE010996BBC0D4
:1004B000823049F420E09A858A89981321E02A8BBA
:1004C000CE014196B0C02D843E844F8458886D88FB
:1004D0007E888F88988CEE24FF248701AA24BB2471
:1004E000650140E050E060E070E0E0E0F0E0C10174
:1004F00081709070892BE9F0E60CF71C081D191D1E
:100500009A01AB012A0D3B1D4C1D5D1D80E090E062
:10051000A0E0B0E0E614F7040805190520F481E036
:1005200090E0A0E0B0E0BA01A901480F591F6A1F8E
:100530007B1FAA0CBB1CCC1CDD1C97FE08C081E0F5
:1005400090E0A0E0B0E0A82AB92ACA2ADB2A3196B6
:10055000E032F10549F0660C771C881C991C569412
:10056000479437942794C3CFFA85EA892B893C892D
:100570008B859C85280F391F2E5F3F4F17C0CA01FE
:1005800081709070892B61F016950795F794E79428
:1005900080E090E0A0E0B0E8E82AF92A0A2B1B2BC3
:1005A00076956795579547952F5F3F4F77FDE7CF36
:1005B0000CC0440F551F661F771F17FD4160EE0CDE
:1005C000FF1C001F111F21503040403090E05907A0
:1005D00090E0690790E4790760F32B8F3C8FDB0193
:1005E000CA018F779070A070B07080349105A1051A
:1005F000B10561F447FD0AC0E114F10401051105DC
:1006000029F0405C5F4F6F4F7F4F40781A8EFE1786
:1006100011F081E08A8F4D8F5E8F6F8F78A383E01A
:10062000898FCE0149960E94FD03A096E2E10C94C9
:10063000DC14A8E1B0E0EFE1F3E00C94CC146983A2
:100640007A838B839C832D833E834F83588789E0F5
:10065000E82EF12CEC0EFD1ECE010196B7010E9492
:10066000D2048E010F5E1F4FCE010596B8010E9485
:10067000D2048985823040F08989823028F0C70110
:10068000B8010E944A0501C08FEF6896E6E00C941D
:10069000E814A8E1B0E0EFE4F3E00C94CC14698333
:1006A0007A838B839C832D833E834F83588789E095
:1006B000E82EF12CEC0EFD1ECE010196B7010E9432
:1006C000D2048E010F5E1F4FCE010596B8010E9425
:1006D000D2048985823040F08989823028F0C701B0
:1006E000B8010E944A0501C08FEF6896E6E00C94BD
:1006F000E814A8E1B0E0EFE7F3E00C94CC146983D0
:100700007A838B839C832D833E834F83588789E034
:10071000E82EF12CEC0EFD1ECE010196B7010E94D1
:10072000D2048E010F5E1F4FCE010596B8010E94C4
:10073000D2048985823040F08989823028F0C7014F
:10074000B8010E944A0501C081E06896E6E00C9479
:10075000E814ACE0B0E0EFEAF3E00C94D014698365
:100760007A838B839C83CE010196BE016B5F7F4FA2
:100770000E94D2048D81823061F1823050F1843048
:1007800021F48E81882351F12EC02F81388537FDC9
:1007900020C06E812F3131051CF06623F9F023C093
:1007A0008EE190E0821B930B29853A854B855C8511
:1007B00004C056954795379527958A95D2F76623B5
:1007C000B1F050954095309521953F4F4F4F5F4F79
:1007D0000EC020E030E040E050E009C02FEF3FEFD6
:1007E0004FEF5FE704C020E030E040E050E8B9019F
:1007F000CA012C96E2E00C94EC14DF92EF92FF9287
:100800000F931F93FC01E480F58006811781D1804E
:100810008081823048F480E090E0A0E1B0E0E82AF6
:10082000F92A0A2B1B2BA5C0843009F49FC0823003
:1008300021F4EE24FF24870105C0E114F104010531
:10084000110519F4E0E0F0E096C0628173819FEF3A
:10085000623879070CF05BC022E83FEF261B370BAC
:100860002A3131052CF020E030E040E050E02AC091
:10087000B801A701022E04C0769567955795479554
:100880000A94D2F781E090E0A0E0B0E004C0880FC5
:10089000991FAA1FBB1F2A95D2F70197A109B10979
:1008A0008E219F21A023B1230097A105B10521F03E
:1008B00081E090E0A0E0B0E09A01AB01282B392B59
:1008C0004A2B5B2BDA01C9018F779070A070B07052
:1008D00080349105A105B10539F427FF09C0205CDA
:1008E0003F4F4F4F5F4F04C0215C3F4F4F4F5F4F13
:1008F000E0E0F0E02030A0E03A07A0E04A07A0E402
:100900005A0710F0E1E0F0E079018A0127C0603871
:10091000710564F5FB01E158FF4FD801C7018F77DE
:100920009070A070B07080349105A105B10539F4C4
:10093000E7FE0DC080E490E0A0E0B0E004C08FE3EB
:1009400090E0A0E0B0E0E80EF91E0A1F1B1F17FFA1
:1009500005C016950795F794E794319687E01695AC
:100960000795F794E7948A95D1F705C0EE24FF2404
:100970008701EFEFF0E06E2F679566276795902F60
:100980009F77D794DD24D7948E2F8695492F462BB9
:10099000582F5D29B701CA011F910F91FF90EF9069
:1009A000DF900895FC01DB01408151812281622F9B
:1009B0006F7770E0221F2227221F9381892F880FD3
:1009C000822B282F30E0991F9927991F11969C930D
:1009D000119721153105A9F54115510561057105DD
:1009E00011F482E037C082E89FEF13969C938E93B8
:1009F00012979A01AB0167E0220F331F441F551F66
:100A00006A95D1F783E08C930DC0220F331F441FEA
:100A1000551F12968D919C911397019713969C9355
:100A20008E931297203080E0380780E0480780E4FA
:100A3000580758F314962D933D934D935C93179755
:100A400008952F3F310579F4411551056105710570
:100A500019F484E08C93089564FF03C081E08C93C3
:100A600012C01C9210C02F57304013963C932E9307
:100A7000129783E08C9387E0440F551F661F771F02
:100A80008A95D1F7706414964D935D936D937C9322
:100A9000179708951F93DC01FB019C91923008F495
:100AA00047C08081823008F443C0943051F41196DD
:100AB0001C91843099F58181682F70E0611B710968
:100AC0003FC0843021F0923031F48230B9F181811D
:100AD000882389F12DC011961C9111978230F1F075
:100AE00081811817D9F412962D913C911397828128
:100AF00093818217930794F028173907BCF0149656
:100B00008D919D910D90BC91A02D248135814681C0
:100B10005781281739074A075B0718F4112341F05A
:100B20000AC082179307A407B50740F4112319F0F0
:100B300061E070E005C06FEF7FEF02C060E070E041
:100B4000CB011F910895DF93CF93CDB7DEB7A3E517
:100B5000B0E0E3E5F0E0808180648C93A3E5B0E051
:100B6000E3E5F0E0808188608C93E2E5F0E01082BC
:100B7000A3E5B0E0E3E5F0E0808181608C93A3E53C
:100B8000B0E0E3E5F0E0808182608C93A3E5B0E023
:100B9000E3E5F0E080818B7F8C93A3E5B0E0E3E5B3
:100BA000F0E0808180628C93A9E5B0E0E9E5F0E0B7
:100BB000808182608C93ECE5F0E08DE78083A3E593
:100BC000B0E0E3E5F0E080818F7E8C93A3E5B0E0B8
:100BD000E3E5F0E080818F7D8C93CF91DF910895E4
:100BE000DF93CF93CDB7DEB7A3E5B0E0E3E5F0E068
:100BF00080818E7F8C93A3E5B0E0E3E5F0E0808117
:100C00008D7F8C93A3E5B0E0E3E5F0E080818B7FFE
:100C10008C93A9E5B0E0E9E5F0E080818E7F8C93CC
:100C2000CF91DF910895DF93CF9300D0CDB7DEB79A
:100C30009A83898389819A8190937900809378003F
:100C40000F900F90CF91DF910895DF93CF93CDB7A1
:100C5000DEB7AFE4B0E0EFE4F0E0808180688C9331
:100C6000AFE4B0E0EFE4F0E0808182608C93AEE42A
:100C7000B0E0EEE4F0E0808188608C93AEE4B0E018
:100C8000EEE4F0E0808180618C93ECE4F0E011828E
:100C90001082E6E4F0E083EC99E091838083AEE497
:100CA000B0E0EEE4F0E0808181608C93AEE4B0E0EF
:100CB000EEE4F0E0808182608C93CF91DF91089523
:100CC000DF93CF93CDB7DEB7AEE4B0E0EEE4F0E073
:100CD00080818E7F8C93AEE4B0E0EEE4F0E0808122
:100CE0008D7F8C93AEE4B0E0EEE4F0E080818B7F0A
:100CF0008C93A9E5B0E0E9E5F0E080818E7F8C93EC
:100D0000CF91DF910895DF93CF93CDB7DEB7A5E400
:100D1000B0E0E5E4F0E0808180648C93A5E4B0E08D
:100D2000E5E4F0E0808188608C93A5E4B0E0E5E440
:100D3000F0E0808180628C93A5E4B0E0E5E4F0E02F
:100D4000808181608C93A5E4B0E0E5E4F0E08081EF
:100D50008D7F8C93A5E4B0E0E5E4F0E080818B7FAB
:100D60008C93CF91DF910895DF93CF93CDB7DEB70A
:100D700083E065E041E00E941411CF91DF91089576
:100D8000DF93CF93CDB7DEB7AB970FB6F894DEBF46
:100D90000FBECDBF8BA78BA5853509F07BC00E9408
:100DA000250680E090E0AAEFB3E48FA398A7A9A757
:100DB000BAA76FA178A589A59AA520E030E04AEFEF
:100DC00054E40E941F02DC01CB018BA39CA3ADA3C2
:100DD000BEA36BA17CA18DA19EA120E030E040E8E4
:100DE0005FE30E94790388232CF481E090E09AA3CA
:100DF00089A33FC06BA17CA18DA19EA120E03FEF04
:100E00004FE757E40E94190318164CF56FA178A517
:100E100089A59AA520E030E040E251E40E941F023B
:100E2000DC01CB01BC01CD010E944900DC01CB01FA
:100E30009AA389A30FC088EC90E098A38F8F8F8D21
:100E400098A10197F1F798A38F8F89A19AA1019793
:100E50009AA389A389A19AA1009769F714C06BA1ED
:100E60007CA18DA19EA10E944900DC01CB019AA327
:100E700089A389A19AA19E8F8D8F8D8D9E8D0197BB
:100E8000F1F79E8F8D8FEAE4F0E081E490E09183AA
:100E90008083F4C08BA5873C09F0F0C080E090E02F
:100EA000AAEFB3E4898F9A8FAB8FBC8F698D7A8D4F
:100EB0008B8D9C8D20E030E04AEF54E40E941F02AD
:100EC000DC01CB018D8B9E8BAF8BB88F6D897E89BA
:100ED0008F89988D20E030E040E85FE30E9479033D
:100EE00088232CF481E090E09C8B8B8B3FC06D8934
:100EF0007E898F89988D20E03FEF4FE757E40E946D
:100F0000190318164CF5698D7A8D8B8D9C8D20E018
:100F100030E040E251E40E941F02DC01CB01BC0141
:100F2000CD010E944900DC01CB019C8B8B8B0FC053
:100F300088EC90E09A8B898B89899A890197F1F7DF
:100F40009A8B898B8B899C8901979C8B8B8B8B8946
:100F50009C89009769F714C06D897E898F89988D67
:100F60000E944900DC01CB019C8B8B8B8B899C8977
:100F7000988B8F878F8598890197F1F7988B8F874A
:100F8000EAE4F0E08FEA90E09183808380E090E0F3
:100F9000AAEFB3E48B879C87AD87BE876B857C8582
:100FA0008D859E8520E030E04AEF54E40E941F02C8
:100FB000DC01CB018F839887A987BA876F817885F9
:100FC00089859A8520E030E040E85FE30E9479035C
:100FD00088232CF481E090E09E838D833FC06F8155
:100FE000788589859A8520E03FEF4FE757E40E9496
:100FF000190318164CF56B857C858D859E8520E040
:1010000030E040E251E40E941F02DC01CB01BC0150
:10101000CD010E944900DC01CB019E838D830FC06E
:1010200088EC90E09C838B838B819C810197F1F706
:101030009C838B838D819E8101979E838D838D817F
:101040009E81009769F714C06F81788589859A859C
:101050000E944900DC01CB019E838D838D819E819E
:101060009A83898389819A810197F1F79A83898389
:10107000EAE4F0E08CE291E091838083AB960FB6D6
:10108000F894DEBF0FBECDBFCF91DF910895DF93FF
:10109000CF93CDB7DEB7E7E3F0E08FEF8083A1E336
:1010A000B0E0E1E3F0E0808187608C9388E30E9408
:1010B00062088CE00E94620881E00E946208CF9181
:1010C000DF910895DF93CF93CDB7DEB7E9970FB6E1
:1010D000F894DEBF0FBECDBF89AFA2E3B0E0E2E37C
:1010E000F0E080818E7F8C93A2E3B0E0E2E3F0E059
:1010F00080818B7F8C9380E090E0A0E8BFE38DAB94
:101100009EABAFABB8AF6DA97EA98FA998AD20E01B
:1011100030E04AEF54E40E941F02DC01CB0189ABAE
:101120009AABABABBCAB69A97AA98BA99CA920E00F
:1011300030E040E85FE30E94790388232CF481E0EB
:1011400090E098AB8FA73FC069A97AA98BA99CA909
:1011500020E03FEF4FE757E40E94190318164CF5C3
:101160006DA97EA98FA998AD20E030E040E251E45E
:101170000E941F02DC01CB01BC01CD010E9449008D
:10118000DC01CB0198AB8FA70FC088EC90E09EA745
:101190008DA78DA59EA50197F1F79EA78DA78FA579
:1011A00098A9019798AB8FA78FA598A9009769F781
:1011B00014C069A97AA98BA99CA90E944900DC01E5
:1011C000CB0198AB8FA78FA598A99CA78BA78BA5C0
:1011D0009CA50197F1F79CA78BA7A2E3B0E0E2E3FF
:1011E000F0E0808182608C9380E090E0A0E8BFE333
:1011F0008FA398A7A9A7BAA76FA178A589A59AA533
:1012000020E030E04AEF54E40E941F02DC01CB01F1
:101210008BA39CA3ADA3BEA36BA17CA18DA19EA11A
:1012200020E030E040E85FE30E94790388232CF45B
:1012300081E090E09AA389A33FC06BA17CA18DA11E
:101240009EA120E03FEF4FE757E40E9419031816D4
:101250004CF56FA178A589A59AA520E030E040E281
:1012600051E40E941F02DC01CB01BC01CD010E94B0
:101270004900DC01CB019AA389A30FC088EC90E060
:1012800098A38F8F8F8D98A10197F1F798A38F8FD7
:1012900089A19AA101979AA389A389A19AA10097EC
:1012A00069F714C06BA17CA18DA19EA10E94490089
:1012B000DC01CB019AA389A389A19AA19E8F8D8F6E
:1012C0008D8D9E8D0197F1F79E8F8D8FE8E3F0E075
:1012D00089AD808380E090E0A0E8BFE3898F9A8F9A
:1012E000AB8FBC8F698D7A8D8B8D9C8D20E030E02B
:1012F0004AEF54E40E941F02DC01CB018D8B9E8BD0
:10130000AF8BB88F6D897E898F89988D20E030E012
:1013100040E85FE30E94790388232CF481E090E0A9
:101320009C8B8B8B3FC06D897E898F89988D20E047
:101330003FEF4FE757E40E94190318164CF5698DEB
:101340007A8D8B8D9C8D20E030E040E251E40E944C
:101350001F02DC01CB01BC01CD010E944900DC0170
:10136000CB019C8B8B8B0FC088EC90E09A8B898B88
:1013700089899A890197F1F79A8B898B8B899C8946
:1013800001979C8B8B8B8B899C89009769F714C084
:101390006D897E898F89988D0E944900DC01CB017F
:1013A0009C8B8B8B8B899C89988B8F878F85988959
:1013B0000197F1F7988B8F87A2E3B0E0E2E3F0E0CA
:1013C00080818D7F8C9380E090E0A0E8BFE38B87E5
:1013D0009C87AD87BE876B857C858D859E8520E04B
:1013E00030E04AEF54E40E941F02DC01CB018F83FE
:1013F0009887A987BA876F81788589859A8520E043
:1014000030E040E85FE30E94790388232CF481E018
:1014100090E09E838D833FC06F81788589859A8512
:1014200020E03FEF4FE757E40E94190318164CF5F0
:101430006B857C858D859E8520E030E040E251E41F
:101440000E941F02DC01CB01BC01CD010E944900BA
:10145000DC01CB019E838D830FC088EC90E09C83E0
:101460008B838B819C810197F1F79C838B838D818A
:101470009E8101979E838D838D819E81009769F760
:1014800014C06F81788589859A850E944900DC01A6
:10149000CB019E838D838D819E819A8389838981EF
:1014A0009A810197F1F79A838983E9960FB6F894A8
:1014B000DEBF0FBECDBFCF91DF910895DF93CF93F5
:1014C000CDB7DEB7E9970FB6F894DEBF0FBECDBF3C
:1014D00089AFA2E3B0E0E2E3F0E0808181608C9329
:1014E000A2E3B0E0E2E3F0E080818B7F8C9380E0C8
:1014F00090E0A0E8BFE38DAB9EABAFABB8AF6DA9FA
:101500007EA98FA998AD20E030E04AEF54E40E9414
:101510001F02DC01CB0189AB9AABABABBCAB69A9B9
:101520007AA98BA99CA920E030E040E85FE30E9403
:10153000790388232CF481E090E098AB8FA73FC01B
:1015400069A97AA98BA99CA920E03FEF4FE757E44E
:101550000E94190318164CF56DA97EA98FA998ADA4
:1015600020E030E040E251E40E941F02DC01CB01A8
:10157000BC01CD010E944900DC01CB0198AB8FA7D3
:101580000FC088EC90E09EA78DA78DA59EA5019722
:10159000F1F79EA78DA78FA598A9019798AB8FA764
:1015A0008FA598A9009769F714C069A97AA98BA992
:1015B0009CA90E944900DC01CB0198AB8FA78FA5A5
:1015C00098A99CA78BA78BA59CA50197F1F79CA731
:1015D0008BA7A2E3B0E0E2E3F0E0808182608C932D
:1015E00080E090E0A0E8BFE38FA398A7A9A7BAA7DF
:1015F0006FA178A589A59AA520E030E04AEF54E4D0
:101600000E941F02DC01CB018BA39CA3ADA3BEA350
:101610006BA17CA18DA19EA120E030E040E85FE3BA
:101620000E94790388232CF481E090E09AA389A397
:101630003FC06BA17CA18DA19EA120E03FEF4FE7B1
:1016400057E40E94190318164CF56FA178A589A5D7
:101650009AA520E030E040E251E40E941F02DC0144
:10166000CB01BC01CD010E944900DC01CB019AA352
:1016700089A30FC088EC90E098A38F8F8F8D98A1DD
:101680000197F1F798A38F8F89A19AA101979AA347
:1016900089A389A19AA1009769F714C06BA17CA1C5
:1016A0008DA19EA10E944900DC01CB019AA389A3D0
:1016B00089A19AA19E8F8D8F8D8D9E8D0197F1F7B7
:1016C0009E8F8D8FE8E3F0E089AD808380E090E02D
:1016D000A0E8BFE3898F9A8FAB8FBC8F698D7A8D1D
:1016E0008B8D9C8D20E030E04AEF54E40E941F0275
:1016F000DC01CB018D8B9E8BAF8BB88F6D897E8982
:101700008F89988D20E030E040E85FE30E94790304
:1017100088232CF481E090E09C8B8B8B3FC06D89FB
:101720007E898F89988D20E03FEF4FE757E40E9434
:10173000190318164CF5698D7A8D8B8D9C8D20E0E0
:1017400030E040E251E40E941F02DC01CB01BC0109
:10175000CD010E944900DC01CB019C8B8B8B0FC01B
:1017600088EC90E09A8B898B89899A890197F1F7A7
:101770009A8B898B8B899C8901979C8B8B8B8B890E
:101780009C89009769F714C06D897E898F89988D2F
:101790000E944900DC01CB019C8B8B8B8B899C893F
:1017A000988B8F878F8598890197F1F7988B8F8712
:1017B000A2E3B0E0E2E3F0E080818D7F8C9380E0F3
:1017C00090E0A0E8BFE38B879C87AD87BE876B85E1
:1017D0007C858D859E8520E030E04AEF54E40E94B0
:1017E0001F02DC01CB018F839887A987BA876F819D
:1017F000788589859A8520E030E040E85FE30E94A3
:10180000790388232CF481E090E09E838D833FC090
:101810006F81788589859A8520E03FEF4FE757E40F
:101820000E94190318164CF56B857C858D859E8565
:1018300020E030E040E251E40E941F02DC01CB01D5
:10184000BC01CD010E944900DC01CB019E838D8348
:101850000FC088EC90E09C838B838B819C810197E7
:10186000F1F79C838B838D819E8101979E838D836D
:101870008D819E81009769F714C06F817885898575
:101880009A850E944900DC01CB019E838D838D8166
:101890009E819A83898389819A810197F1F79A833E
:1018A0008983E9960FB6F894DEBF0FBECDBFCF9106
:1018B000DF910895DF93CF9300D0CDB7DEB79A8341
:1018C00089830AC0E981FA8180810E945E0A898148
:1018D0009A8101969A838983E981FA81808188239C
:1018E00089F70F900F90CF91DF910895DF93CF93F9
:1018F00000D000D00F92CDB7DEB78A836B838A8188
:10190000282F30E03D832C838C819D81009731F01E
:101910002C813D812130310521F006C08B818983E6
:1019200003C08B81805C8983898180680E94620802
:101930000F900F900F900F900F90CF91DF9108951F
:10194000DF93CF9300D000D0CDB7DEB789836A8311
:101950005C834B8389816A810E94760C8B819C8198
:101960000E945A0C0F900F900F900F90CF91DF9123
:101970000895DF93CF93CDB7DEB762970FB6F89493
:10198000DEBF0FBECDBF9A8B898B89899A899E0154
:101990002F5F3F4FB9014AE050E00E941515CE017C
:1019A00001960E945A0C62960FB6F894DEBF0FBEE5
:1019B000CDBFCF91DF910895DF93CF93CDB7DEB741
:1019C00081E00E946208CF91DF910895DF93CF9369
:1019D000CDB7DEB782E060EF0E94DE0E82E06FEFEF
:1019E0000E943510CF91DF910895DF93CF93CDB74B
:1019F000DEB762970FB6F894DEBF0FBECDBF8FEF94
:101A00008F8784E0898BBDC082E0698940E00E94B5
:101A1000260F188AAAC09E012E5E3F4F82E0688979
:101A2000A9010E947D108A89882309F09BC08989B9
:101A3000882F90E0AC01445050408889282F30E036
:101A4000CA01880F991F880F991F820F931FFC01ED
:101A5000E859FF4F80818F879E012E5E3F4F82E0C5
:101A60006889A9010E947D1008C09E012E5E3F4F2B
:101A700082E06889A9010E947D108A898823A9F3E0
:101A800080E090E0A0E2B1E48B879C87AD87BE87C1
:101A90006B857C858D859E8520E030E04AEF54E49F
:101AA0000E941F02DC01CB018F839887A987BA8728
:101AB0006F81788589859A8520E030E040E85FE392
:101AC0000E94790388232CF481E090E09E838D832B
:101AD0003FC06F81788589859A8520E03FEF4FE789
:101AE00057E40E94190318164CF56B857C858D858B
:101AF0009E8520E030E040E251E40E941F02DC01BC
:101B0000CB01BC01CD010E944900DC01CB019E83C9
:101B10008D830FC088EC90E09C838B838B819C81AC
:101B20000197F1F79C838B838D819E8101979E8322
:101B30008D838D819E81009769F714C06F817885B0
:101B400089859A850E944900DC01CB019E838D83A3
:101B50008D819E819A83898389819A810197F1F78A
:101B60009A83898388898F5F888B8889843008F479
:101B700052CF82E0698941E00E94260F89898F5FF8
:101B8000898B8989883008F43FCF8F8562960FB69C
:101B9000F894DEBF0FBECDBFCF91DF910895DF93E4
:101BA000CF93CDB7DEB728970FB6F894DEBF0FBE40
:101BB000CDBF8A836B834C8381E089838B8188309E
:101BC00008F0F1C08C81882309F076C08A81282F23
:101BD00030E038872F838F8198858130910559F1C6
:101BE0002F813885223031052CF48F81988500971C
:101BF00069F060C02F8138852230310589F18F81ED
:101C000098858330910509F440C054C0AAE3B0E040
:101C1000EAE3F0E08081482F8B81282F30E081E0DB
:101C200090E0022E02C0880F991F0A94E2F7809577
:101C300084238C93B9C0A7E3B0E0E7E3F0E08081B0
:101C4000482F8B81282F30E081E090E0022E02C0E7
:101C5000880F991F0A94E2F7809584238C93A4C07F
:101C6000A4E3B0E0E4E3F0E08081482F8B81282FEB
:101C700030E081E090E0022E02C0880F991F0A94A4
:101C8000E2F7809584238C938FC0A1E3B0E0E1E379
:101C9000F0E08081482F8B81282F30E081E090E0B8
:101CA000022E02C0880F991F0A94E2F780958423C0
:101CB0008C937AC0198278C08C81813009F071C010
:101CC0008A81282F30E03E832D838D819E81813053
:101CD000910549F12D813E81223031052CF48D8111
:101CE0009E81009761F05BC02D813E8122303105DD
:101CF00071F18D819E8183309105E9F150C0AAE395
:101D0000B0E0EAE3F0E08081482F8B81282F30E0BB
:101D100081E090E0022E02C0880F991F0A94E2F73A
:101D2000842B8C9341C0A7E3B0E0E7E3F0E080812F
:101D3000482F8B81282F30E081E090E0022E02C0F6
:101D4000880F991F0A94E2F7842B8C932DC0A4E38B
:101D5000B0E0E4E3F0E08081482F8B81282F30E071
:101D600081E090E0022E02C0880F991F0A94E2F7EA
:101D7000842B8C9319C0A1E3B0E0E1E3F0E0808113
:101D8000482F8B81282F30E081E090E0022E02C0A6
:101D9000880F991F0A94E2F7842B8C9305C019824F
:101DA00003C0198201C01982898128960FB6F89460
:101DB000DEBF0FBECDBFCF91DF910895DF93CF93EC
:101DC00000D000D00F92CDB7DEB78A836B8381E05D
:101DD00089838A81282F30E03D832C838C819D81EB
:101DE00081309105D1F02C813D81223031052CF4D8
:101DF0008C819D81009761F01FC02C813D81223034
:101E0000310581F08C819D818330910581F014C072
:101E1000EAE3F0E08B81808310C0E7E3F0E08B81A0
:101E200080830BC0E4E3F0E08B81808306C0E1E3B4
:101E3000F0E08B81808301C0198289810F900F901F
:101E40000F900F900F90CF91DF910895DF93CF9374
:101E5000CDB7DEB728970FB6F894DEBF0FBECDBF63
:101E60008A836B834C8381E089838B81883008F07F
:101E7000F1C08C81882309F076C08A81282F30E058
:101E800038872F838F8198858130910559F12F8173
:101E90003885223031052CF48F819885009769F0C0
:101EA00060C02F8138852230310589F18F81988576
:101EB0008330910509F440C054C0ABE3B0E0EBE3DC
:101EC000F0E08081482F8B81282F30E081E090E086
:101ED000022E02C0880F991F0A94E2F7809584238E
:101EE0008C93B9C0A8E3B0E0E8E3F0E08081482F2C
:101EF0008B81282F30E081E090E0022E02C0880F15
:101F0000991F0A94E2F7809584238C93A4C0A5E3DB
:101F1000B0E0E5E3F0E08081482F8B81282F30E0AE
:101F200081E090E0022E02C0880F991F0A94E2F728
:101F3000809584238C938FC0A2E3B0E0E2E3F0E0CD
:101F40008081482F8B81282F30E081E090E0022EA5
:101F500002C0880F991F0A94E2F7809584238C931E
:101F60007AC0198278C08C81813009F071C08A8171
:101F7000282F30E03E832D838D819E818130910515
:101F800049F12D813E81223031052CF48D819E81D5
:101F9000009761F05BC02D813E812230310571F1E7
:101FA0008D819E8183309105E9F150C0ABE3B0E0B3
:101FB000EBE3F0E08081482F8B81282F30E081E037
:101FC00090E0022E02C0880F991F0A94E2F7842B3A
:101FD0008C9341C0A8E3B0E0E8E3F0E08081482FB3
:101FE0008B81282F30E081E090E0022E02C0880F24
:101FF000991F0A94E2F7842B8C932DC0A5E3B0E0DF
:10200000E5E3F0E08081482F8B81282F30E081E0EC
:1020100090E0022E02C0880F991F0A94E2F7842BE9
:102020008C9319C0A2E3B0E0E2E3F0E08081482F96
:102030008B81282F30E081E090E0022E02C0880FD3
:10204000991F0A94E2F7842B8C9305C0198203C070
:10205000198201C01982898128960FB6F894DEBFD3
:102060000FBECDBFCF91DF910895DF93CF9300D006
:1020700000D00F92CDB7DEB78A836B8381E089836E
:102080008A81282F30E03D832C838C819D81813093
:102090009105D1F02C813D81223031052CF48C81C9
:1020A0009D81009761F01FC02C813D812230310558
:1020B00081F08C819D818330910581F014C0EBE328
:1020C000F0E08B81808310C0E8E3F0E08B818083B7
:1020D0000BC0E5E3F0E08B81808306C0E2E3F0E033
:1020E0008B81808301C0198289810F900F900F909E
:1020F0000F900F90CF91DF910895DF93CF93CDB7DD
:10210000DEB727970FB6F894DEBF0FBECDBF8A8328
:102110006B835D834C8381E089838C819D810097F3
:1021200009F477C08B81883008F073C08A81282F2A
:1021300030E03F832E834E815F814130510559F15C
:102140008E819F818230910534F42E813F8121154B
:10215000310569F05CC04E815F814230510579F1F3
:102160008E819F818330910509F43DC050C0E9E321
:10217000F0E08081282F30E08B81882F90E0A9014A
:1021800002C0559547958A95E2F7CA018170EC81A6
:10219000FD8180833FC0E6E3F0E08081282F30E0BE
:1021A0008B81882F90E0A90102C0559547958A95AB
:1021B000E2F7CA018170EC81FD8180832BC0E3E3EB
:1021C000F0E08081282F30E08B81882F90E0A901FA
:1021D00002C0559547958A95E2F7CA018170EC8156
:1021E000FD81808317C0E0E3F0E08081282F30E09C
:1021F0008B81882F90E0A90102C0559547958A955B
:10220000E2F7CA018170EC81FD81808303C01982ED
:1022100001C01982898127960FB6F894DEBF0FBEE0
:10222000CDBFCF91DF910895DF93CF9300D000D041
:102230000F92CDB7DEB789836A834B838981282FBC
:1022400030E03D832C836C817D816130710509F420
:1022500041C08C819D818230910534F42C813D8177
:102260002115310571F0B0C06C817D81623071053E
:1022700009F459C08C819D818330910509F47CC09B
:10228000A3C0AAE3B0E0EAE3F0E08081482F8A81AE
:10229000282F30E081E090E002C0880F991F2A9536
:1022A000E2F7809584238C93AAE3B0E0EAE3F0E0C0
:1022B0008081482F8B81282F30E08A81882F90E001
:1022C000B90102C0660F771F8A95E2F7CB01842B14
:1022D0008C937AC0A7E3B0E0E7E3F0E08081482F79
:1022E0008A81282F30E081E090E002C0880F991F9A
:1022F0002A95E2F7809584238C93A7E3B0E0E7E387
:10230000F0E08081482F8B81282F30E08A81882F50
:1023100090E0B90102C0660F771F8A95E2F7CB0102
:10232000842B8C9351C0A4E3B0E0E4E3F0E080811F
:10233000482F8A81282F30E081E090E002C0880F8A
:10234000991F2A95E2F7809584238C93A4E3B0E04B
:10235000E4E3F0E08081482F8B81282F30E08A81F0
:10236000882F90E0B90102C0660F771F8A95E2F7C7
:10237000CB01842B8C9328C0A1E3B0E0E1E3F0E033
:102380008081482F8A81282F30E081E090E002C0D0
:10239000880F991F2A95E2F7809584238C93A1E3F7
:1023A000B0E0E1E3F0E08081482F8B81282F30E01E
:1023B0008A81882F90E0B90102C0660F771F8A9545
:1023C000E2F7CB01842B8C930F900F900F900F901E
:1023D0000F90CF91DF910895DF93CF9300D000D07D
:1023E0000F92CDB7DEB789836A834B838981282F0B
:1023F00030E03D832C836C817D816130710509F46F
:1024000041C08C819D818230910534F42C813D81C5
:102410002115310571F0B0C06C817D81623071058C
:1024200009F459C08C819D818330910509F47CC0E9
:10243000A3C0ABE3B0E0EBE3F0E08081482F8A81FA
:10244000282F30E081E090E002C0880F991F2A9584
:10245000E2F7809584238C93ABE3B0E0EBE3F0E00C
:102460008081482F8B81282F30E08A81882F90E04F
:10247000B90102C0660F771F8A95E2F7CB01842B62
:102480008C937AC0A8E3B0E0E8E3F0E08081482FC5
:102490008A81282F30E081E090E002C0880F991FE8
:1024A0002A95E2F7809584238C93A8E3B0E0E8E3D3
:1024B000F0E08081482F8B81282F30E08A81882F9F
:1024C00090E0B90102C0660F771F8A95E2F7CB0151
:1024D000842B8C9351C0A5E3B0E0E5E3F0E080816C
:1024E000482F8A81282F30E081E090E002C0880FD9
:1024F000991F2A95E2F7809584238C93A5E3B0E099
:10250000E5E3F0E08081482F8B81282F30E08A813D
:10251000882F90E0B90102C0660F771F8A95E2F715
:10252000CB01842B8C9328C0A2E3B0E0E2E3F0E07F
:102530008081482F8A81282F30E081E090E002C01E
:10254000880F991F2A95E2F7809584238C93A2E344
:10255000B0E0E2E3F0E08081482F8B81282F30E06B
:102560008A81882F90E0B90102C0660F771F8A9593
:10257000E2F7CB01842B8C930F900F900F900F906C
:102580000F90CF91DF910895DF93CF9300D000D0CB
:1025900000D0CDB7DEB789836A838981282F30E0E8
:1025A0003D832C834C815D814130510549F18C8103
:1025B0009D818230910534F42C813D8121153105B6
:1025C00061F057C04C815D814230510561F18C81D1
:1025D0009D8183309105D1F14CC0E9E3F0E0808129
:1025E000282F30E08A81882F90E0A90102C05595FC
:1025F00047958A95E2F7CA01582F51705B833AC01C
:10260000E6E3F0E08081282F30E08A81882F90E097
:10261000A90102C0559547958A95E2F7CA01582F3E
:1026200051705B8327C0E3E3F0E08081282F30E026
:102630008A81882F90E0A90102C0559547958A9517
:10264000E2F7CA01582F51705B8314C0E0E3F0E059
:102650008081282F30E08A81882F90E0A90102C074
:10266000559547958A95E2F7CA01582F51705B83BB
:1026700001C002C08B818E838E8126960FB6F8949E
:10268000DEBF0FBECDBFCF91DF910895DF93CF9313
:1026900000D000D0CDB7DEB789836A838981282F27
:1026A00030E03C832B838B819C818130910549F103
:1026B0002B813C81223031052CF48B819C81009749
:1026C00061F05AC02B813C812230310571F18B8140
:1026D0009C8183309105E9F14FC0ABE3B0E0EBE3BF
:1026E000F0E08081482F8A81282F30E081E090E05F
:1026F000022E02C0880F991F0A94E2F784278C9358
:102700003BC0A8E3B0E0E8E3F0E08081482F8A8195
:10271000282F30E081E090E0022E02C0880F991F40
:102720000A94E2F784278C9327C0A5E3B0E0E5E3A1
:10273000F0E08081482F8A81282F30E081E090E00E
:10274000022E02C0880F991F0A94E2F784278C9307
:1027500013C0A2E3B0E0E2E3F0E08081482F8A8179
:10276000282F30E081E090E0022E02C0880F991FF0
:102770000A94E2F784278C930F900F900F900F909C
:10278000CF91DF910895DF93CF93CDB7DEB7EAE322
:10279000F0E01082E6E2F0E087E88083E7E2F0E034
:1027A00080E48083CF91DF910895DF93CF93CDB7FD
:1027B000DEB72F970FB6F894DEBF0FBECDBF8F8761
:1027C000E7E2F0E08F85877080648083A6E2B0E066
:1027D000E6E2F0E0808180648C93E6E2F0E08081C4
:1027E000882F90E0807190700097B9F3A6E2B0E076
:1027F000E6E2F0E0808180618C9380E090E0A0E8E8
:10280000BFE38B879C87AD87BE876B857C858D8575
:102810009E8520E030E04AEF54E40E941F02DC0174
:10282000CB018F839887A987BA876F81788589853F
:102830009A8520E030E040E85FE30E947903882336
:102840002CF481E090E09E838D833FC06F8178857A
:1028500089859A8520E03FEF4FE757E40E941903EE
:1028600018164CF56B857C858D859E8520E030E0C3
:1028700040E251E40E941F02DC01CB01BC01CD010A
:102880000E944900DC01CB019E838D830FC088EC40
:1028900090E09C838B838B819C810197F1F79C83D3
:1028A0008B838D819E8101979E838D838D819E81F7
:1028B000009769F714C06F81788589859A850E9491
:1028C0004900DC01CB019E838D838D819E819A839B
:1028D000898389819A810197F1F79A838983E4E258
:1028E000F0E0808191812F960FB6F894DEBF0FBE85
:1028F000CDBFCF91DF910895DF93CF93CDB7DEB7F2
:1029000064970FB6F894DEBF0FBECDBF0E94470894
:102910000E94E60C0E94B4060E94C3138FEF8B83C3
:102920000E94F50C8B838B818F3FC1F38B810E94BA
:102930005E0A1A8219821EC08B818D3369F4CE0122
:1029400005960E94F7148C838C81882F90E00E945A
:10295000C0060E94DC0CE2CF29813A81CE010596A7
:10296000FC01E20FF31F8B81808389819A8101969C
:102970009A83898389819A8180319105ECF2CECF47
:102980002F923F924F925F926F927F928F929F927F
:10299000AF92BF92CF92DF92EF92FF920F931F936D
:1029A000CF93DF93CDB7DEB7CA1BDB0B0FB6F8941E
:1029B000DEBF0FBECDBF09942A88398848885F845E
:1029C0006E847D848C849B84AA84B984C884DF80CF
:1029D000EE80FD800C811B81AA81B981CE0FD11DB3
:1029E0000FB6F894DEBF0FBECDBFED010895FC0118
:1029F00088279927E89421912032E9F3293010F0B3
:102A00002E30C8F32B3241F02D3239F4689404C0D3
:102A10000E943615820F911D219120532A30C0F358
:102A20001EF4909581959F4F0895FB019F01E894B6
:102A30004230C4F04532B4F44A3029F497FB1EF416
:102A4000909581959F4F642F77270E944E15805D4A
:102A50008A330CF0895D8193CB010097A1F716F4BE
:102A60005DE251931082C9010C943E157AE0979F64
:102A7000902D879F802D910D11240895DC01FC017C
:102A8000672F71917723E1F7329704C07C916D93A2
:102A900070836291AE17BF07C8F30895AA1BBB1BD2
:102AA00051E107C0AA1FBB1FA617B70710F0A61B4E
:102AB000B70B881F991F5A95A9F780959095BC016F
:082AC000CD010895F894FFCF49
:102AC800000000000000000037343125383532306E
:082AD8003936333D2F2A2D2B66
:00000001FF
