:100000000C942A000C9434000C9434000C943400AA
:100010000C9434000C9434000C9434000C94340090
:100020000C9434000C9434000C9434000C94340080
:100030000C9434000C9434000C9434000C94340070
:100040000C9434000C9434000C9434000C94340060
:100050000C94340011241FBECFE5D8E0DEBFCDBF25
:100060000E9481010C9405020C9400001ABA86B11A
:10007000806886B986B1866086B987B1806C87B999
:10008000089597B1907E97B997B1892B87B9089554
:1000900086B1806486B9089586B196B1906196B9AB
:1000A00082958170089524B185B190E0982F8827BA
:1000B000822B0895813011F130F08230D1F18330FC
:1000C00009F452C00895413059F42AB381E090E018
:1000D00002C0880F991F6A95E2F7822B8ABB0895A8
:1000E00041115CC02AB381E090E002C0880F991FE3
:1000F0006A95E2F7809582238ABB0895413059F4CE
:1001000027B381E090E002C0880F991F6A95E2F75B
:10011000822B87BB0895411141C027B381E090E055
:1001200002C0880F991F6A95E2F78095822387BBEA
:100130000895413059F424B381E090E002C0880F63
:10014000991F6A95E2F7822B84BB0895411126C05E
:1001500024B381E090E002C0880F991F6A95E2F70E
:100160008095822384BB0895413059F421B381E006
:1001700090E002C0880F991F6A95E2F7822B81BB3D
:10018000089541110BC021B381E090E002C0880FB7
:10019000991F6A95E2F78095822381BB089581308B
:1001A00011F130F08230D1F1833009F452C008955A
:1001B000413059F42BB381E090E002C0880F991FC1
:1001C0006A95E2F7822B8BBB089541115CC02BB37B
:1001D00081E090E002C0880F991F6A95E2F7809550
:1001E00082238BBB0895413059F428B381E090E01D
:1001F00002C0880F991F6A95E2F7822B88BB089589
:10020000411141C028B381E090E002C0880F991FDE
:100210006A95E2F78095822388BB0895413059F4AE
:1002200025B381E090E002C0880F991F6A95E2F73C
:10023000822B85BB0895411126C025B381E090E053
:1002400002C0880F991F6A95E2F78095822385BBCB
:100250000895413059F422B381E090E002C0880F44
:10026000991F6A95E2F7822B82BB089541110BC05A
:1002700022B381E090E002C0880F991F6A95E2F7EF
:100280008095822382BB0895813089F028F08230E6
:10029000C9F0833011F133C089B390E002C0959565
:1002A00087956A95E2F780FF23C091E028C086B366
:1002B00090E002C0959587956A95E2F780FF1AC095
:1002C00091E01DC083B390E002C0959587956A9533
:1002D000E2F780FF11C091E012C080B390E002C04D
:1002E000959587956A95E2F780FF08C091E007C071
:1002F00090E005C090E003C090E001C090E0892F3D
:10030000089540E060E080E00E945A0041E066E02D
:1003100082E00E945A0041E067E082E00E945A00B9
:1003200041E063E081E00E945A0040E060E081E04B
:100330000E945A0040E061E081E00E945A0041E0E2
:1003400065E081E00E945A0041E066E081E00E94A1
:100350005A0087B3886087BB0E94360080E00E9405
:10036000410080E090E00E94000285B38F7B85BB56
:1003700085B3806885BB0E9448000E944C0088239A
:10038000E1F30E945300853018F48FEF8CBF15C045
:100390008A3018F485EE8CBF10C08F3018F482EBD1
:1003A0008CBF0BC0843118F486E68CBF06C089313F
:1003B00018F489E18CBF01C01CBE60E081E00E949E
:1003C0004401882331F041E065E081E00E94CF00E4
:1003D00005C040E065E081E00E94CF0061E081E07F
:1003E0000E944401882331F041E066E081E00E94F0
:1003F000CF00C1CF40E066E081E00E94CF00BBCFDC
:0E04000095E793BF19BE8CBF0895F894FFCF07
:00000001FF
