:100000000C942A000C9434000C9434000C943400AA
:100010000C9434000C9434000C9434000C94340090
:100020000C9434000C9434000C9434000C94340080
:100030000C9434000C9434000C9434000C94340070
:100040000C9434000C9434000C9434000C94340060
:100050000C94340011241FBECFE5D8E0DEBFCDBF25
:100060000E946B030C9422040C940000DF93CF9346
:10007000CDB7DEB7EAE3F0E01082A6E2B0E0E6E258
:10008000F0E0808180688C93A6E2B0E0E6E2F0E0E8
:10009000808186608C93A7E2B0E0E7E2F0E08081A7
:1000A000806C8C93CF91DF910895DF93CF930F9263
:1000B000CDB7DEB78983A7E2B0E0E7E2F0E0808168
:1000C000807E8C93A7E2B0E0E7E2F0E09081898146
:1000D000892B8C930F90CF91DF910895DF93CF936D
:1000E0000F92CDB7DEB789838981882341F4A6E2D8
:1000F000B0E0E6E2F0E080818F7D8C9307C0A6E25D
:10010000B0E0E6E2F0E0808180628C930F90CF91C6
:10011000DF910895DF93CF930F92CDB7DEB7898338
:10012000A0E5B0E0E0E5F0E080818F718C93A0E580
:10013000B0E0E0E5F0E08081282F8981882F90E011
:10014000880F991F82959295907F9827807F982796
:10015000822B8C930F90CF91DF910895DF93CF93F3
:10016000CDB7DEB7A6E2B0E0E6E2F0E080818064E1
:100170008C93CF91DF910895DF93CF930F92CDB7FA
:10018000DEB7E6E2F0E0808182958F70817089832E
:10019000A6E2B0E0E6E2F0E0808180618C938981A4
:1001A0000F90CF91DF910895DF93CF9300D0CDB71B
:1001B000DEB7E4E2F0E08081882F90E09A838983C3
:1001C000E5E2F0E08081882F90E0982F88279C015D
:1001D00089819A81822B932B9A83898389819A8141
:1001E0000F900F90CF91DF910895DF93CF9300D0C0
:1001F00000D00F92CDB7DEB789836A834B838981A4
:10020000282F30E03D832C838C819D8181309105A6
:1002100009F447C02C813D81223031052CF48C81BA
:100220009D81009771F0CBC02C813D81223031053A
:1002300009F467C08C819D818330910509F491C0D8
:10024000BEC08B818130A1F4AAE3B0E0EAE3F0E024
:100250008081482F8A81282F30E081E090E0022EB3
:1002600002C0880F991F0A94E2F7842B8C93A7C0D1
:100270008B81882309F0A3C0AAE3B0E0EAE3F0E0B1
:100280008081482F8A81282F30E081E090E0022E83
:1002900002C0880F991F0A94E2F7809584238C93FB
:1002A0008EC08B818130A1F4A7E3B0E0E7E3F0E0FA
:1002B0008081482F8A81282F30E081E090E0022E53
:1002C00002C0880F991F0A94E2F7842B8C9377C0A1
:1002D0008B81882309F073C0A7E3B0E0E7E3F0E087
:1002E0008081482F8A81282F30E081E090E0022E23
:1002F00002C0880F991F0A94E2F7809584238C939B
:100300005EC08B818130A1F4A4E3B0E0E4E3F0E0CF
:100310008081482F8A81282F30E081E090E0022EF2
:1003200002C0880F991F0A94E2F7842B8C9347C070
:100330008B81882309F043C0A4E3B0E0E4E3F0E05C
:100340008081482F8A81282F30E081E090E0022EC2
:1003500002C0880F991F0A94E2F7809584238C933A
:100360002EC08B818130A1F4A1E3B0E0E1E3F0E0A5
:100370008081482F8A81282F30E081E090E0022E92
:1003800002C0880F991F0A94E2F7842B8C9317C040
:100390008B818823A1F4A1E3B0E0E1E3F0E0808168
:1003A000482F8A81282F30E081E090E0022E02C0A1
:1003B000880F991F0A94E2F7809584238C930F90FD
:1003C0000F900F900F900F90CF91DF910895DF93D2
:1003D000CF9300D000D00F92CDB7DEB789836A8368
:1003E0004B838981282F30E03D832C838C819D8134
:1003F0008130910509F447C02C813D8122303105BF
:100400002CF48C819D81009771F0CBC02C813D81B3
:100410002230310509F467C08C819D8183309105BC
:1004200009F491C0BEC08B818130A1F4ABE3B0E090
:10043000EBE3F0E08081482F8A81282F30E081E0D3
:1004400090E0022E02C0880F991F0A94E2F7842BD5
:100450008C93A7C08B81882309F0A3C0ABE3B0E0E5
:10046000EBE3F0E08081482F8A81282F30E081E0A3
:1004700090E0022E02C0880F991F0A94E2F780953F
:1004800084238C938EC08B818130A1F4A8E3B0E0EB
:10049000E8E3F0E08081482F8A81282F30E081E076
:1004A00090E0022E02C0880F991F0A94E2F7842B75
:1004B0008C9377C08B81882309F073C0A8E3B0E0E8
:1004C000E8E3F0E08081482F8A81282F30E081E046
:1004D00090E0022E02C0880F991F0A94E2F78095DF
:1004E00084238C935EC08B818130A1F4A5E3B0E0BE
:1004F000E5E3F0E08081482F8A81282F30E081E019
:1005000090E0022E02C0880F991F0A94E2F7842B14
:100510008C9347C08B81882309F043C0A5E3B0E0EA
:10052000E5E3F0E08081482F8A81282F30E081E0E8
:1005300090E0022E02C0880F991F0A94E2F780957E
:1005400084238C932EC08B818130A1F4A2E3B0E090
:10055000E2E3F0E08081482F8A81282F30E081E0BB
:1005600090E0022E02C0880F991F0A94E2F7842BB4
:100570008C9317C08B818823A1F4A2E3B0E0E2E35F
:10058000F0E08081482F8A81282F30E081E090E0E0
:10059000022E02C0880F991F0A94E2F780958423E7
:1005A0008C930F900F900F900F900F90CF91DF9141
:1005B0000895DF93CF9300D000D00F92CDB7DEB770
:1005C0008A836B838A81282F30E03D832C834C8182
:1005D0005D814130510579F18C819D818230910599
:1005E00034F42C813D812115310569F06BC04C81BB
:1005F0005D8142305105B9F18C819D818330910537
:1006000009F449C05FC0E9E3F0E08081282F30E0C1
:100610008B81882F90E0A90102C0559547958A9556
:10062000E2F7CA0181709070882319F081E0898314
:1006300049C0198247C0E6E3F0E08081282F30E00E
:100640008B81882F90E0A90102C0559547958A9526
:10065000E2F7CA0181709070882319F081E08983E4
:1006600031C019822FC0E3E3F0E08081282F30E011
:100670008B81882F90E0A90102C0559547958A95F6
:10068000E2F7CA0181709070882319F081E08983B4
:1006900019C0198217C0E0E3F0E08081282F30E014
:1006A0008B81882F90E0A90102C0559547958A95C6
:1006B000E2F7CA0181709070882319F081E0898384
:1006C00001C0198289810F900F900F900F900F90A9
:1006D000CF91DF910895DF93CF930F92CDB7DEB71F
:1006E00080E060E040E00E94F50082E066E041E0EA
:1006F0000E94F50082E067E041E00E94F50081E0A1
:1007000063E041E00E94F50081E060E040E00E948B
:10071000F50081E061E040E00E94F50081E065E0E5
:1007200041E00E94F50081E066E041E00E94F500B2
:10073000A7E3B0E0E7E3F0E0808188608C930E945B
:10074000360080E00E94550080E090E00E940D0499
:10075000A5E3B0E0E5E3F0E080818F7B8C93A5E337
:10076000B0E0E5E3F0E0808180688C930E94AE0009
:100770000E94BC008823E1F30E94D4008983898110
:10078000853028F4ECE5F0E08FEF808323C0898189
:100790008A3028F4ECE5F0E085EE80831BC0898187
:1007A0008F3028F4ECE5F0E082EB808313C0898180
:1007B000843128F4ECE5F0E086E680830BC0898183
:1007C000893128F4ECE5F0E089E1808303C0ECE5B1
:1007D000F0E0108281E060E00E94D902882331F0CD
:1007E00081E065E041E00E94E70105C081E065E04D
:1007F00040E00E94E70181E061E00E94D902882385
:1008000031F081E066E041E00E94E701AFCF81E096
:1008100066E040E00E94E701A9CFDF93CF930F92FB
:10082000CDB7DEB78983E3E5F0E085E78083E9E5CE
:10083000F0E01082ECE5F0E0898180830F90CF91A9
:08084000DF910895F894FFCF49
:00000001FF
