:100000000C942A000C9447000C9447000C94470071
:100010000C9447000C9447000C9447000C94470044
:100020000C9447000C9447000C9447000C94470034
:100030000C9447000C9447000C9447000C94470024
:100040000C9447000C9447000C9447000C94470014
:100050000C94470011241FBECFE5D8E0DEBFCDBF12
:1000600011E0A0E6B0E0EEE5FDE202C005900D92E1
:10007000A037B107D9F711E0A0E7B1E001C01D92A8
:10008000A237B107E1F70E947C130C94AD160C94D3
:100090000000EF92FF920F931F937B018C0120E0F1
:1000A00030E040E05FE40E94F50388238CF0C80153
:1000B000B70120E030E040E05FE40E94C1010E940F
:1000C000E3049B01AC01205030404040504806C042
:1000D000C801B7010E94E3049B01AC01B901CA0148
:1000E0001F910F91FF90EF900895A0E0B0E0EBE733
:1000F000F0E00C948913DC012B01FA019C91923001
:1001000008F439C1EB018881823008F433C194309E
:1001100069F4843009F02FC111969C91119789815F
:10012000981709F428C1A8E6B0E025C1843009F485
:1001300021C18230A9F4923009F01DC19A01AD01AC
:1001400088E0EA010990AE01E90109929E0181501F
:10015000C1F7E201898111969C918923818308C1AD
:10016000923009F407C112962D903C901397EB0141
:100170008A819B811496AD90BD90CD90DC901797AD
:10018000EC80FD800E811F819101281B390BB90184
:1001900037FF04C066277727621B730B6032710537
:1001A0000CF061C0121613066CF537014801062EDB
:1001B00004C096948794779467940A94D2F721E0C8
:1001C00030E040E050E004C0220F331F441F551FB1
:1001D0006A95D2F721503040404050402E213F21B7
:1001E00040235123211531054105510521F021E01E
:1001F00030E040E050E079018A01E628F72808293C
:1002000019293CC0232BD1F1260E371E350146019A
:10021000062E04C096948794779467940A94D2F734
:1002200021E030E040E050E004C0220F331F441FC3
:10023000551F6A95D2F721503040404050402A2146
:100240003B214C215D21211531054105510521F04E
:1002500021E030E040E050E059016A01A628B728CB
:10026000C828D9280BC0821593052CF01C01AA249C
:10027000BB24650103C0EE24FF24870111969C91E5
:10028000D20111968C91981709F445C0992339F041
:10029000A80197012A193B094C095D0906C0A6016E
:1002A00095012E193F09400B510B57FD08C01182D3
:1002B0003382228224833583468357831DC081E0A5
:1002C00081833382228288279927DC01821B930B4A
:1002D000A40BB50B84839583A683B7830DC0220F2F
:1002E000331F441F551F24833583468357838281E0
:1002F000938101979383828324813581468157813D
:10030000DA01C9010197A109B1098F5F9F4FAF4F72
:10031000BF4328F30BC0918333822282EA0CFB1C7B
:100320000C1D1D1DE482F5820683178383E0808304
:10033000248135814681578157FF1AC0C901AA27F8
:1003400097FDA095BA2F81709070A070B0705695EF
:10035000479537952795822B932BA42BB52B848318
:100360009583A683B7838281938101969383828349
:10037000DF0101C0D201CD01CDB7DEB7E2E10C94BF
:10038000A513A0E2B0E0E7ECF1E00C9495136983CB
:100390007A838B839C832D833E834F835887E9E048
:1003A000EE2EF12CEC0EFD1ECE010196B7010E943F
:1003B0005B068E010F5E1F4FCE010596B8010E94AD
:1003C0005B068A8991E089278A8BC701B801AE0153
:1003D000475E5F4F0E9475000E948605A096E6E08A
:1003E0000C94B113A0E2B0E0E8EFF1E00C949513A7
:1003F00069837A838B839C832D833E834F835887C5
:10040000F9E0EF2EF12CEC0EFD1ECE010196B701A6
:100410000E945B068E010F5E1F4FCE010596B8014C
:100420000E945B06C701B801AE01475E5F4F0E94A4
:1004300075000E948605A096E6E00C94B113A0E238
:10044000B0E0E5E2F2E00C94891369837A838B8350
:100450009C832D833E834F835887CE010196BE0136
:10046000675F7F4F0E945B06CE010596BE016F5EFF
:100470007F4F0E945B069985923088F0898982308F
:10048000C8F0943019F4823051F404C0843029F457
:10049000923081F488E690E0C6C0923049F420E0C2
:1004A0009A858A89981321E02A87CE010996BBC0D4
:1004B000823049F420E09A858A89981321E02A8BBA
:1004C000CE014196B0C02D843E844F8458886D88FB
:1004D0007E888F88988CEE24FF248701AA24BB2471
:1004E000650140E050E060E070E0E0E0F0E0C10174
:1004F00081709070892BE9F0E60CF71C081D191D1E
:100500009A01AB012A0D3B1D4C1D5D1D80E090E062
:10051000A0E0B0E0E614F7040805190520F481E036
:1005200090E0A0E0B0E0BA01A901480F591F6A1F8E
:100530007B1FAA0CBB1CCC1CDD1C97FE08C081E0F5
:1005400090E0A0E0B0E0A82AB92ACA2ADB2A3196B6
:10055000E032F10549F0660C771C881C991C569412
:10056000479437942794C3CFFA85EA892B893C892D
:100570008B859C85280F391F2E5F3F4F17C0CA01FE
:1005800081709070892B61F016950795F794E79428
:1005900080E090E0A0E0B0E8E82AF92A0A2B1B2BC3
:1005A00076956795579547952F5F3F4F77FDE7CF36
:1005B0000CC0440F551F661F771F17FD4160EE0CDE
:1005C000FF1C001F111F21503040403090E05907A0
:1005D00090E0690790E4790760F32B8F3C8FDB0193
:1005E000CA018F779070A070B07080349105A1051A
:1005F000B10561F447FD0AC0E114F10401051105DC
:1006000029F0405C5F4F6F4F7F4F40781A8EFE1786
:1006100011F081E08A8F4D8F5E8F6F8F78A383E01A
:10062000898FCE0149960E948605A096E2E10C943E
:10063000A513A8E1B0E0EFE1F3E00C949113698316
:100640007A838B839C832D833E834F835887B9E0C5
:10065000EB2EF12CEC0EFD1ECE010196B7010E948F
:100660005B068E010F5E1F4FCE010596B8010E94FA
:100670005B062985223008F47EC03989323010F4B7
:10068000B8017CC08A859A8989278A87243011F02D
:10069000223031F4231709F06EC068E670E06EC0B6
:1006A000343039F41D861E861F86188A1C861B86E8
:1006B00004C0323021F484E08987B7015FC02B8504
:1006C0003C858B899C89281B390B3C872B87ED84C3
:1006D000FE840F851889AD88BE88CF88D88CEA142F
:1006E000FB040C051D0540F4EE0CFF1C001F111F40
:1006F000215030403C872B8720E030E040E050E044
:1007000080E090E0A0E0B0E460E070E0EA14FB0478
:100710000C051D0540F0282B392B4A2B5B2BEA18C2
:10072000FB080C091D09B695A79597958795EE0CC2
:10073000FF1C001F111F6F5F7F4F6F31710531F775
:10074000DA01C9018F779070A070B0708034910584
:10075000A105B10561F427FD0AC0E114F10401050A
:10076000110529F0205C3F4F4F4F5F4F20782D87B8
:100770003E874F87588BBE01675F7F4FCB010E943A
:1007800086056896EAE00C94AD13A8E1B0E0EBECC6
:10079000F3E00C94951369837A838B839C832D8378
:1007A0003E834F83588789E0E82EF12CEC0EFD1E26
:1007B000CE010196B7010E945B068E010F5E1F4FAE
:1007C000CE010596B8010E945B068985823040F013
:1007D0008989823028F0C701B8010E94D30601C080
:1007E0008FEF6896E6E00C94B113A8E1B0E0EBEF70
:1007F000F3E00C94951369837A838B839C832D8318
:100800003E834F83588789E0E82EF12CEC0EFD1EC5
:10081000CE010196B7010E945B068E010F5E1F4F4D
:10082000CE010596B8010E945B068985823040F0B2
:100830008989823028F0C701B8010E94D30601C01F
:100840008FEF6896E6E00C94B113A8E1B0E0EBE21C
:10085000F4E00C94951369837A838B839C832D83B6
:100860003E834F83588789E0E82EF12CEC0EFD1E65
:10087000CE010196B7010E945B068E010F5E1F4FED
:10088000CE010596B8010E945B068985823040F052
:100890008989823028F0C701B8010E94D30601C0BF
:1008A00081E06896E6E00C94B113A8E1B0E0EBE5D6
:1008B000F4E00C94951369837A838B839C832D8356
:1008C0003E834F83588789E0E82EF12CEC0EFD1E05
:1008D000CE010196B7010E945B068E010F5E1F4F8D
:1008E000CE010596B8010E945B068985823040F0F2
:1008F0008989823028F0C701B8010E94D30601C05F
:1009000081E06896E6E00C94B113A8E0B0E0EBE873
:10091000F4E00C9492139B01AC0183E08983DA012B
:10092000C9018827B7FD83959927AA27BB27B82E29
:10093000211531054105510519F482E089833AC03A
:100940008823A9F0203080E0380780E0480780E85D
:10095000580729F460E070E080E09FEC30C0EE249E
:10096000FF248701E21AF30A040B150B02C0790178
:100970008A018EE1C82ED12CDC82CB82ED82FE82F0
:100980000F831887C801B7010E9437050197181611
:10099000190684F4082E04C0EE0CFF1C001F111F62
:1009A0000A94D2F7ED82FE820F831887C81AD90AFB
:1009B000DC82CB82BA82CE0101960E9486052896FF
:1009C000E9E00C94AE13ACE0B0E0E9EEF4E00C9496
:1009D000991369837A838B839C83CE010196BE0130
:1009E0006B5F7F4F0E945B068D81823061F18230A8
:1009F00050F1843021F48E81882351F12EC02F8153
:100A0000388537FD20C06E812F3131051CF06623FB
:100A1000F9F023C08EE190E0821B930B29853A8583
:100A20004B855C8504C056954795379527958A95E3
:100A3000D2F76623B1F050954095309521953F4F00
:100A40004F4F5F4F0EC020E030E040E050E009C063
:100A50002FEF3FEF4FEF5FE704C020E030E040E0D2
:100A600050E8B901CA012C96E2E00C94B513EF925C
:100A7000FF920F931F937B018C0180E0E81680E0CA
:100A8000F80681E0080780E0180788F48FEFE81681
:100A9000F1040105110531F028F088E090E0A0E0B4
:100AA000B0E017C080E090E0A0E0B0E012C080E0CD
:100AB000E81680E0F80680E0080781E0180728F0D3
:100AC00088E190E0A0E0B0E004C080E190E0A0E028
:100AD000B0E020E230E040E050E0281B390B4A0B48
:100AE0005B0B04C016950795F794E7948A95D2F7A7
:100AF000F701E059FF4F8081281B31094109510955
:100B0000C9011F910F91FF90EF900895DF92EF922E
:100B1000FF920F931F93FC01E480F58006811781FB
:100B2000D1808081823048F480E090E0A0E1B0E0A4
:100B3000E82AF92A0A2B1B2BA5C0843009F49FC090
:100B4000823021F4EE24FF24870105C0E114F10472
:100B50000105110519F4E0E0F0E096C062817381AF
:100B60009FEF623879070CF05BC022E83FEF261B4D
:100B7000370B2A3131052CF020E030E040E050E026
:100B80002AC0B801A701022E04C076956795579533
:100B900047950A94D2F781E090E0A0E0B0E004C06D
:100BA000880F991FAA1FBB1F2A95D2F70197A10989
:100BB000B1098E219F21A023B1230097A105B10582
:100BC00021F081E090E0A0E0B0E09A01AB01282B99
:100BD000392B4A2B5B2BDA01C9018F779070A070FB
:100BE000B07080349105A105B10539F427FF09C023
:100BF000205C3F4F4F4F5F4F04C0215C3F4F4F4F32
:100C00005F4FE0E0F0E02030A0E03A07A0E04A07C4
:100C1000A0E45A0710F0E1E0F0E079018A0127C072
:100C20006038710564F5FB01E158FF4FD801C70139
:100C30008F779070A070B07080349105A105B105D8
:100C400039F4E7FE0DC080E490E0A0E0B0E004C01D
:100C50008FE390E0A0E0B0E0E80EF91E0A1F1B1F32
:100C600017FF05C016950795F794E794319687E02E
:100C700016950795F794E7948A95D1F705C0EE2469
:100C8000FF248701EFEFF0E06E2F679566276795E9
:100C9000902F9F77D794DD24D7948E2F8695492F58
:100CA000462B582F5D29B701CA011F910F91FF9064
:100CB000EF90DF900895FC01DB014081518122819A
:100CC000622F6F7770E0221F2227221F9381892FC6
:100CD000880F822B282F30E0991F9927991F119692
:100CE0009C93119721153105A9F541155105610511
:100CF000710511F482E037C082E89FEF13969C9350
:100D00008E9312979A01AB0167E0220F331F441FA5
:100D1000551F6A95D1F783E08C930DC0220F331FC6
:100D2000441F551F12968D919C911397019713960E
:100D30009C938E931297203080E0380780E048071C
:100D400080E4580758F314962D933D934D935C938C
:100D5000179708952F3F310579F441155105610525
:100D6000710519F484E08C93089564FF03C081E059
:100D70008C9312C01C9210C02F57304013963C9396
:100D80002E93129783E08C9387E0440F551F661FC4
:100D9000771F8A95D1F7706414964D935D936D9388
:100DA0007C93179708951F93DC01FB019C9192306F
:100DB00008F447C08081823008F443C0943051F475
:100DC00011961C91843099F58181682F70E0611B28
:100DD00071093FC0843021F0923031F48230B9F192
:100DE0008181882389F12DC011961C911197823041
:100DF000F1F081811817D9F412962D913C91139737
:100E0000828193818217930794F028173907BCF0E9
:100E100014968D919D910D90BC91A02D24813581CA
:100E200046815781281739074A075B0718F41123B1
:100E300041F00AC082179307A407B50740F41123B5
:100E400019F061E070E005C06FEF7FEF02C060E075
:100E500070E0CB011F910895DF93CF93CDB7DEB73C
:100E6000A3E5B0E0E3E5F0E0808180648C93A3E546
:100E7000B0E0E3E5F0E0808188608C93E2E5F0E0AB
:100E80001082A3E5B0E0E3E5F0E0808181608C931F
:100E9000A3E5B0E0E3E5F0E0808182608C93A3E518
:100EA000B0E0E3E5F0E080818B7F8C93A3E5B0E0D8
:100EB000E3E5F0E0808180628C93A9E5B0E0E9E5AC
:100EC000F0E0808182608C93ECE5F0E08DE7808338
:100ED000A3E5B0E0E3E5F0E080818F7E8C93A3E5AD
:100EE000B0E0E3E5F0E080818F7D8C93CF91DF91DE
:100EF0000895DF93CF93CDB7DEB7A3E5B0E0E3E588
:100F0000F0E080818E7F8C93A3E5B0E0E3E5F0E034
:100F100080818D7F8C93A3E5B0E0E3E5F0E08081F4
:100F20008B7F8C93A9E5B0E0E9E5F0E080818E7FCE
:100F30008C93CF91DF910895DF93CF9300D0CDB7FD
:100F4000DEB79A83898389819A8190937101809316
:100F500070010F900F90CF91DF910895DF93CF93A1
:100F6000CDB7DEB7EFE4F0E082E88083EEE4F0E0B6
:100F70008BE18083AFE4B0E0EFE4F0E08081806853
:100F80008C93AFE4B0E0EFE4F0E0808182608C937A
:100F9000AEE4B0E0EEE4F0E0808188608C93AEE4F3
:100FA000B0E0EEE4F0E0808180618C93ECE4F0E06E
:100FB00011821082E6E4F0E083EC99E09183808373
:100FC000AEE4B0E0EEE4F0E0808181608C93AEE4CA
:100FD000B0E0EEE4F0E0808182608C93CF91DF910D
:100FE0000895DF93CF93CDB7DEB7AEE4B0E0EEE483
:100FF000F0E080818E7F8C93AEE4B0E0EEE4F0E030
:1010000080818D7F8C93AEE4B0E0EEE4F0E08081EF
:101010008B7F8C93A9E5B0E0E9E5F0E080818E7FDD
:101020008C93CF91DF910895DF93CF93CDB7DEB747
:10103000A5E4B0E0E5E4F0E0808180648C93A5E471
:10104000B0E0E5E4F0E0808188608C93A5E4B0E056
:10105000E5E4F0E0808180628C93A5E4B0E0E5E413
:10106000F0E0808181608C93A5E4B0E0E5E4F0E0FD
:1010700080818D7F8C93A5E4B0E0E5E4F0E0808191
:101080008B7F8C93CF91DF910895DF93CF93CDB772
:10109000DEB783E067E041E00E941410CF91DF915A
:1010A0000895DF93CF93CDB7DEB7CC54D0400FB6C1
:1010B000F894DEBF0FBECDBF80E00E94D512882F0E
:1010C00090E0AA2797FDA095BA2FBC01CD010E9400
:1010D0008504DC01CB01BC01CD0126EF38E24CE9EF
:1010E00050E40E941F02DC01CB0189AF9AAFABAF85
:1010F000BCAF69AD7AAD8BAD9CAD20E030E040E295
:1011000051E40E941903DC01CB0189AF9AAFABAF68
:10111000BCAF69AD7AAD8BAD9CAD0E94E304DC0140
:10112000CB019C018DB79EB708970FB6F8949EBF70
:101130000FBE8DBFEDB7FEB73196CE01CD96918330
:10114000808380E690E093838283358324838FEDD0
:1011500090E0978386830E94E8138DB79EB7089628
:101160000FB6F8949EBF0FBE8DBFCE01CD9660E046
:1011700070E04AE050E00E94C01369AD7AAD8BADDB
:101180009CAD0E94E304DC01CB01AA2797FDA0954A
:10119000BA2FBC01CD010E948504DC01CB0189AFCF
:1011A0009AAFABAFBCAF0E9414082D961FAE2D971F
:1011B00069AD7AAD8BAD9CAD20E030E040E050E011
:1011C0000E94C503181624F491E02D969FAF2D9729
:1011D00081E02D969FAD2D978927882309F091C036
:1011E0002C961FAE2C9769AD7AAD8BAD9CAD20E0EF
:1011F00030E040EF51E40E945504181624F081E0DD
:101200002C968FAF2C9781E02C969FAD2C97892739
:10121000882309F076C0E3E4F0E0108280E090E0FB
:10122000AAE7B4E48DAB9EABAFABB8AF6DA97EA916
:101230008FA998AD20E030E04AEF54E40E941F02ED
:10124000DC01CB0189AB9AABABABBCAB69A97AA98A
:101250008BA99CA920E030E040E85FE30E942504D0
:1012600088232CF481E090E098AB8FA73FC069A958
:101270007AA98BA99CA920E03FEF4FE757E40E9491
:10128000C50318164CF56DA97EA98FA998AD20E06D
:1012900030E040E251E40E941F02DC01CB01BC01BE
:1012A000CD010E944900DC01CB0198AB8FA70FC094
:1012B00088EC90E09EA78DA78DA59EA50197F1F7DC
:1012C0009EA78DA78FA598A9019798AB8FA78FA5EB
:1012D00098A9009769F7FFC169A97AA98BA99CA968
:1012E0000E944900DC01CB0198AB8FA78FA598A97C
:1012F0009CA78BA78BA59CA50197F1F79CA78BA713
:10130000EAC12B961FAE2B9769AD7AAD8BAD9CAD24
:1013100020E030E040EF51E40E94C503181624F4A9
:1013200081E02B968FAF2B9781E02B969FAD2B976B
:101330008927882309F092C02A961FAE2A9769ADA3
:101340007AAD8BAD9CAD20E030E040E752E40E94E6
:101350005504181624F081E02A968FAF2A9781E071
:101360002A969FAD2A978927882309F077C0E3E45E
:10137000F0E08DE4808380E090E0AAE7B4E48FA3FE
:1013800098A7A9A7BAA76FA178A589A59AA520E0D3
:1013900030E04AEF54E40E941F02DC01CB018BA332
:1013A0009CA3ADA3BEA36BA17CA18DA19EA120E0B7
:1013B00030E040E85FE30E94250488232CF481E0BC
:1013C00090E09AA389A33FC06BA17CA18DA19EA1AF
:1013D00020E03FEF4FE757E40E94C50318164CF595
:1013E0006FA178A589A59AA520E030E040E251E4FC
:1013F0000E941F02DC01CB01BC01CD010E9449000B
:10140000DC01CB019AA389A30FC088EC90E098A3DC
:101410008F8F8F8D98A10197F1F798A38F8F89A156
:101420009AA101979AA389A389A19AA1009769F724
:1014300052C16BA17CA18DA19EA10E944900DC013B
:10144000CB019AA389A389A19AA19E8F8D8F8D8D9F
:101450009E8D0197F1F79E8F8D8F3DC129961FAE0E
:10146000299769AD7AAD8BAD9CAD20E030E040E7C7
:1014700052E40E94C503181624F481E029968FAF28
:10148000299781E029969FAD29978927882309F01C
:1014900092C028961FAE289769AD7AAD8BAD9CADF2
:1014A00020E030E040EA52E40E945504181624F08F
:1014B00081E028968FAF289781E028969FAD2897E6
:1014C0008927882309F077C0E3E4F0E084E680838D
:1014D00080E090E0AAE7B4E4898F9A8FAB8FBC8F4D
:1014E000698D7A8D8B8D9C8D20E030E04AEF54E43D
:1014F0000E941F02DC01CB018D8B9E8BAF8BB88FBE
:101500006D897E898F89988D20E030E040E85FE327
:101510000E94250488232CF481E090E09C8B8B8B27
:101520003FC06D897E898F89988D20E03FEF4FE71E
:1015300057E40E94C50318164CF5698D7A8D8B8D82
:101540009C8D20E030E040E251E40E941F02DC016B
:10155000CB01BC01CD010E944900DC01CB019C8B79
:101560008B8B0FC088EC90E09A8B898B89899A8944
:101570000197F1F79A8B898B8B899C8901979C8BBA
:101580008B8B8B899C89009769F7A5C06D897E89B3
:101590008F89988D0E944900DC01CB019C8B8B8B3D
:1015A0008B899C89988B8F878F8598890197F1F714
:1015B000988B8F8790C069AD7AAD8BAD9CAD20E0E4
:1015C00030E040EA52E40E94C50318160CF083C0D4
:1015D00069AD7AAD8BAD9CAD20E030E048EC52E4D3
:1015E0000E94550418160CF476C0E3E4F0E08FEF87
:1015F000808380E090E0AAE7B4E48B879C87AD8786
:10160000BE876B857C858D859E8520E030E04AEF26
:1016100054E40E941F02DC01CB018F839887A987C5
:10162000BA876F81788589859A8520E030E040E827
:101630005FE30E94250488232CF481E090E09E83E0
:101640008D833FC06F81788589859A8520E03FEF43
:101650004FE757E40E94C50318164CF56B857C854F
:101660008D859E8520E030E040E251E40E941F021B
:10167000DC01CB01BC01CD010E944900DC01CB01A2
:101680009E838D830FC088EC90E09C838B838B813D
:101690009C810197F1F79C838B838D819E810197BB
:1016A0009E838D838D819E81009769F714C06F8121
:1016B000788589859A850E944900DC01CB019E834B
:1016C0008D838D819E819A83898389819A810197F7
:1016D000F1F79A838983C45BDF4F0FB6F894DEBFBE
:1016E0000FBECDBFCF91DF910895DF93CF93CDB7DC
:1016F000DEB7E7E3F0E08FEF8083A1E3B0E0E1E362
:10170000F0E0808187608C9388E30E94900B8CE0EE
:101710000E94900B81E00E94900BCF91DF91089581
:10172000DF93CF93CDB7DEB7E9970FB6F894DEBF5E
:101730000FBECDBF89AFA2E3B0E0E2E3F0E080816D
:101740008E7F8C93A2E3B0E0E2E3F0E080818B7FB8
:101750008C9380E090E0A0E8BFE38DAB9EABAFAB95
:10176000B8AF6DA97EA98FA998AD20E030E04AEF0F
:1017700054E40E941F02DC01CB0189AB9AABABABF6
:10178000BCAB69A97AA98BA99CA920E030E040E80C
:101790005FE30E94250488232CF481E090E098AB5D
:1017A0008FA73FC069A97AA98BA99CA920E03FEF28
:1017B0004FE757E40E94C50318164CF56DA97EA9A2
:1017C0008FA998AD20E030E040E251E40E941F0272
:1017D000DC01CB01BC01CD010E944900DC01CB0141
:1017E00098AB8FA70FC088EC90E09EA78DA78DA522
:1017F0009EA50197F1F79EA78DA78FA598A90197A0
:1018000098AB8FA78FA598A9009769F714C069A90D
:101810007AA98BA99CA90E944900DC01CB0198AB55
:101820008FA78FA598A99CA78BA78BA59CA501978F
:10183000F1F79CA78BA7A2E3B0E0E2E3F0E08081A0
:1018400082608C9380E090E0A0E8BFE38FA398A72C
:10185000A9A7BAA76FA178A589A59AA520E030E02D
:101860004AEF54E40E941F02DC01CB018BA39CA32E
:10187000ADA3BEA36BA17CA18DA19EA120E030E011
:1018800040E85FE30E94250488232CF481E090E087
:101890009AA389A33FC06BA17CA18DA19EA120E04A
:1018A0003FEF4FE757E40E94C50318164CF56FA1B0
:1018B00078A589A59AA520E030E040E251E40E9495
:1018C0001F02DC01CB01BC01CD010E944900DC01FB
:1018D000CB019AA389A30FC088EC90E098A38F8FC7
:1018E0008F8D98A10197F1F798A38F8F89A19AA165
:1018F00001979AA389A389A19AA1009769F714C0B7
:101900006BA17CA18DA19EA10E944900DC01CB01AD
:101910009AA389A389A19AA19E8F8D8F8D8D9E8D6B
:101920000197F1F79E8F8D8FE8E3F0E089AD80831A
:1019300080E090E0A0E8BFE3898F9A8FAB8FBC8FE7
:10194000698D7A8D8B8D9C8D20E030E04AEF54E4D8
:101950000E941F02DC01CB018D8B9E8BAF8BB88F59
:101960006D897E898F89988D20E030E040E85FE3C3
:101970000E94250488232CF481E090E09C8B8B8BC3
:101980003FC06D897E898F89988D20E03FEF4FE7BA
:1019900057E40E94C50318164CF5698D7A8D8B8D1E
:1019A0009C8D20E030E040E251E40E941F02DC0107
:1019B000CB01BC01CD010E944900DC01CB019C8B15
:1019C0008B8B0FC088EC90E09A8B898B89899A89E0
:1019D0000197F1F79A8B898B8B899C8901979C8B56
:1019E0008B8B8B899C89009769F714C06D897E89E0
:1019F0008F89988D0E944900DC01CB019C8B8B8BD9
:101A00008B899C89988B8F878F8598890197F1F7AF
:101A1000988B8F87A2E3B0E0E2E3F0E080818D7FD6
:101A20008C9380E090E0A0E8BFE38B879C87AD8734
:101A3000BE876B857C858D859E8520E030E04AEFF2
:101A400054E40E941F02DC01CB018F839887A98791
:101A5000BA876F81788589859A8520E030E040E8F3
:101A60005FE30E94250488232CF481E090E09E83AC
:101A70008D833FC06F81788589859A8520E03FEF0F
:101A80004FE757E40E94C50318164CF56B857C851B
:101A90008D859E8520E030E040E251E40E941F02E7
:101AA000DC01CB01BC01CD010E944900DC01CB016E
:101AB0009E838D830FC088EC90E09C838B838B8109
:101AC0009C810197F1F79C838B838D819E81019787
:101AD0009E838D838D819E81009769F714C06F81ED
:101AE000788589859A850E944900DC01CB019E8317
:101AF0008D838D819E819A83898389819A810197C3
:101B0000F1F79A838983E9960FB6F894DEBF0FBE8A
:101B1000CDBFCF91DF910895DF93CF93CDB7DEB7DF
:101B2000E9970FB6F894DEBF0FBECDBF89AFA2E331
:101B3000B0E0E2E3F0E0808181608C93A2E3B0E06A
:101B4000E2E3F0E080818B7F8C9380E090E0A0E87E
:101B5000BFE38DAB9EABAFABB8AF6DA97EA98FA92C
:101B600098AD20E030E04AEF54E40E941F02DC010F
:101B7000CB0189AB9AABABABBCAB69A97AA98BA9FA
:101B80009CA920E030E040E85FE30E942504882320
:101B90002CF481E090E098AB8FA73FC069A97AA9A7
:101BA0008BA99CA920E03FEF4FE757E40E94C503B3
:101BB00018164CF56DA97EA98FA998AD20E030E0EC
:101BC00040E251E40E941F02DC01CB01BC01CD01C7
:101BD0000E944900DC01CB0198AB8FA70FC088ECB5
:101BE00090E09EA78DA78DA59EA50197F1F79EA7D2
:101BF0008DA78FA598A9019798AB8FA78FA598A9B6
:101C0000009769F714C069A97AA98BA99CA90E94B9
:101C10004900DC01CB0198AB8FA78FA598A99CA7A1
:101C20008BA78BA59CA50197F1F79CA78BA7A2E397
:101C3000B0E0E2E3F0E0808182608C9380E090E0AD
:101C4000A0E8BFE38FA398A7A9A7BAA76FA178A51B
:101C500089A59AA520E030E04AEF54E40E941F02D3
:101C6000DC01CB018BA39CA3ADA3BEA36BA17CA184
:101C70008DA19EA120E030E040E85FE30E942504B2
:101C800088232CF481E090E09AA389A33FC06BA144
:101C90007CA18DA19EA120E03FEF4FE757E40E9479
:101CA000C50318164CF56FA178A589A59AA520E063
:101CB00030E040E251E40E941F02DC01CB01BC0194
:101CC000CD010E944900DC01CB019AA389A30FC07A
:101CD00088EC90E098A38F8F8F8D98A10197F1F7F2
:101CE00098A38F8F89A19AA101979AA389A389A10B
:101CF0009AA1009769F714C06BA17CA18DA19EA148
:101D00000E944900DC01CB019AA389A389A19AA171
:101D10009E8F8D8F8D8D9E8D0197F1F79E8F8D8F6C
:101D2000E8E3F0E089AD808380E090E0A0E8BFE3E5
:101D3000898F9A8FAB8FBC8F698D7A8D8B8D9C8D9F
:101D400020E030E04AEF54E40E941F02DC01CB01A6
:101D50008D8B9E8BAF8BB88F6D897E898F89988D87
:101D600020E030E040E85FE30E94250488232CF463
:101D700081E090E09C8B8B8B3FC06D897E898F8941
:101D8000988D20E03FEF4FE757E40E94C5031816F7
:101D90004CF5698D7A8D8B8D9C8D20E030E040E292
:101DA00051E40E941F02DC01CB01BC01CD010E9465
:101DB0004900DC01CB019C8B8B8B0FC088EC90E041
:101DC0009A8B898B89899A890197F1F79A8B898BEC
:101DD0008B899C8901979C8B8B8B8B899C89009725
:101DE00069F714C06D897E898F89988D0E9449009A
:101DF000DC01CB019C8B8B8B8B899C89988B8F878B
:101E00008F8598890197F1F7988B8F87A2E3B0E0CF
:101E1000E2E3F0E080818D7F8C9380E090E0A0E8A9
:101E2000BFE38B879C87AD87BE876B857C858D855F
:101E30009E8520E030E04AEF54E40E941F02DC015E
:101E4000CB018F839887A987BA876F817885898529
:101E50009A8520E030E040E85FE30E942504882373
:101E60002CF481E090E09E838D833FC06F81788564
:101E700089859A8520E03FEF4FE757E40E94C5032C
:101E800018164CF56B857C858D859E8520E030E0AD
:101E900040E251E40E941F02DC01CB01BC01CD01F4
:101EA0000E944900DC01CB019E838D830FC088EC2A
:101EB00090E09C838B838B819C810197F1F79C83BD
:101EC0008B838D819E8101979E838D838D819E81E1
:101ED000009769F714C06F81788589859A850E947B
:101EE0004900DC01CB019E838D838D819E819A8385
:101EF000898389819A810197F1F79A838983E99689
:101F00000FB6F894DEBF0FBECDBFCF91DF9108951D
:101F1000DF93CF9300D0CDB7DEB79A8389830AC011
:101F2000E981FA8180810E948C0D89819A810196D4
:101F30009A838983E981FA818081882389F70F90C8
:101F40000F90CF91DF910895DF93CF9300D000D011
:101F50000F92CDB7DEB78A836B838A81282F30E05A
:101F60003D832C838C819D81009731F02C813D81B4
:101F70002130310521F006C08B81898303C08B811C
:101F8000805C8983898180680E94900B0F900F90FC
:101F90000F900F900F90CF91DF910895DF93CF9323
:101FA00000D000D0CDB7DEB789836A835C834B83D2
:101FB00089816A810E94A40F8B819C810E94880F75
:101FC0000F900F900F900F90CF91DF910895DF93B6
:101FD000CF93CDB7DEB762970FB6F894DEBF0FBED2
:101FE000CDBF9A8B898B89899A899E012F5F3F4F3C
:101FF000B9014AE050E00E94C713CE0101960E9449
:10200000880F62960FB6F894DEBF0FBECDBFCF919A
:10201000DF910895DF93CF93CDB7DEB781E00E94C3
:10202000900BCF91DF910895DF93CF9300D000D034
:102030000F92CDB7DEB789836A834B838981282FBE
:1020400030E03D832C836C817D816130710509F422
:1020500041C08C819D818230910534F42C813D8179
:102060002115310571F0B0C06C817D816230710540
:1020700009F459C08C819D818330910509F47CC09D
:10208000A3C0AAE3B0E0EAE3F0E08081482F8A81B0
:10209000282F30E081E090E002C0880F991F2A9538
:1020A000E2F7809584238C93AAE3B0E0EAE3F0E0C2
:1020B0008081482F8B81282F30E08A81882F90E003
:1020C000B90102C0660F771F8A95E2F7CB01842B16
:1020D0008C937AC0A7E3B0E0E7E3F0E08081482F7B
:1020E0008A81282F30E081E090E002C0880F991F9C
:1020F0002A95E2F7809584238C93A7E3B0E0E7E389
:10210000F0E08081482F8B81282F30E08A81882F52
:1021100090E0B90102C0660F771F8A95E2F7CB0104
:10212000842B8C9351C0A4E3B0E0E4E3F0E0808121
:10213000482F8A81282F30E081E090E002C0880F8C
:10214000991F2A95E2F7809584238C93A4E3B0E04D
:10215000E4E3F0E08081482F8B81282F30E08A81F2
:10216000882F90E0B90102C0660F771F8A95E2F7C9
:10217000CB01842B8C9328C0A1E3B0E0E1E3F0E035
:102180008081482F8A81282F30E081E090E002C0D2
:10219000880F991F2A95E2F7809584238C93A1E3F9
:1021A000B0E0E1E3F0E08081482F8B81282F30E020
:1021B0008A81882F90E0B90102C0660F771F8A9547
:1021C000E2F7CB01842B8C930F900F900F900F9020
:1021D0000F90CF91DF910895DF93CF9300D000D07F
:1021E0000F92CDB7DEB789836A834B838981282F0D
:1021F00030E03D832C836C817D816130710509F471
:1022000041C08C819D818230910534F42C813D81C7
:102210002115310571F0B0C06C817D81623071058E
:1022200009F459C08C819D818330910509F47CC0EB
:10223000A3C0ABE3B0E0EBE3F0E08081482F8A81FC
:10224000282F30E081E090E002C0880F991F2A9586
:10225000E2F7809584238C93ABE3B0E0EBE3F0E00E
:102260008081482F8B81282F30E08A81882F90E051
:10227000B90102C0660F771F8A95E2F7CB01842B64
:102280008C937AC0A8E3B0E0E8E3F0E08081482FC7
:102290008A81282F30E081E090E002C0880F991FEA
:1022A0002A95E2F7809584238C93A8E3B0E0E8E3D5
:1022B000F0E08081482F8B81282F30E08A81882FA1
:1022C00090E0B90102C0660F771F8A95E2F7CB0153
:1022D000842B8C9351C0A5E3B0E0E5E3F0E080816E
:1022E000482F8A81282F30E081E090E002C0880FDB
:1022F000991F2A95E2F7809584238C93A5E3B0E09B
:10230000E5E3F0E08081482F8B81282F30E08A813F
:10231000882F90E0B90102C0660F771F8A95E2F717
:10232000CB01842B8C9328C0A2E3B0E0E2E3F0E081
:102330008081482F8A81282F30E081E090E002C020
:10234000880F991F2A95E2F7809584238C93A2E346
:10235000B0E0E2E3F0E08081482F8B81282F30E06D
:102360008A81882F90E0B90102C0660F771F8A9595
:10237000E2F7CB01842B8C930F900F900F900F906E
:102380000F90CF91DF910895DF93CF9300D000D0CD
:1023900000D0CDB7DEB789836A838981282F30E0EA
:1023A0003D832C834C815D814130510549F18C8105
:1023B0009D818230910534F42C813D8121153105B8
:1023C00061F057C04C815D814230510561F18C81D3
:1023D0009D8183309105D1F14CC0E9E3F0E080812B
:1023E000282F30E08A81882F90E0A90102C05595FE
:1023F00047958A95E2F7CA01582F51705B833AC01E
:10240000E6E3F0E08081282F30E08A81882F90E099
:10241000A90102C0559547958A95E2F7CA01582F40
:1024200051705B8327C0E3E3F0E08081282F30E028
:102430008A81882F90E0A90102C0559547958A9519
:10244000E2F7CA01582F51705B8314C0E0E3F0E05B
:102450008081282F30E08A81882F90E0A90102C076
:10246000559547958A95E2F7CA01582F51705B83BD
:1024700001C002C08B818E838E8126960FB6F894A0
:10248000DEBF0FBECDBFCF91DF910895DF93CF9315
:1024900000D000D0CDB7DEB789836A838981282F29
:1024A00030E03C832B838B819C818130910549F105
:1024B0002B813C81223031052CF48B819C8100974B
:1024C00061F05AC02B813C812230310571F18B8142
:1024D0009C8183309105E9F14FC0ABE3B0E0EBE3C1
:1024E000F0E08081482F8A81282F30E081E090E061
:1024F000022E02C0880F991F0A94E2F784278C935A
:102500003BC0A8E3B0E0E8E3F0E08081482F8A8197
:10251000282F30E081E090E0022E02C0880F991F42
:102520000A94E2F784278C9327C0A5E3B0E0E5E3A3
:10253000F0E08081482F8A81282F30E081E090E010
:10254000022E02C0880F991F0A94E2F784278C9309
:1025500013C0A2E3B0E0E2E3F0E08081482F8A817B
:10256000282F30E081E090E0022E02C0880F991FF2
:102570000A94E2F784278C930F900F900F900F909E
:10258000CF91DF910895DF93CF93CDB7DEB7EAE324
:10259000F0E01082E6E2F0E087E88083E7E2F0E036
:1025A00080E48083CF91DF910895DF93CF93CDB7FF
:1025B000DEB72F970FB6F894DEBF0FBECDBF8F8763
:1025C000E7E2F0E08F85877080648083A6E2B0E068
:1025D000E6E2F0E0808180648C93E6E2F0E08081C6
:1025E000882F90E0807190700097B9F3A6E2B0E078
:1025F000E6E2F0E0808180618C9380E090E0A0E8EA
:10260000BFE38B879C87AD87BE876B857C858D8577
:102610009E8520E030E04AEF54E40E941F02DC0176
:10262000CB018F839887A987BA876F817885898541
:102630009A8520E030E040E85FE30E94250488238B
:102640002CF481E090E09E838D833FC06F8178857C
:1026500089859A8520E03FEF4FE757E40E94C50344
:1026600018164CF56B857C858D859E8520E030E0C5
:1026700040E251E40E941F02DC01CB01BC01CD010C
:102680000E944900DC01CB019E838D830FC088EC42
:1026900090E09C838B838B819C810197F1F79C83D5
:1026A0008B838D819E8101979E838D838D819E81F9
:1026B000009769F714C06F81788589859A850E9493
:1026C0004900DC01CB019E838D838D819E819A839D
:1026D000898389819A810197F1F79A838983E4E25A
:1026E000F0E0808191812F960FB6F894DEBF0FBE87
:1026F000CDBFCF91DF910895DF93CF93CDB7DEB7F4
:102700000E94750B0E9445080E94C3120E94510846
:10271000FDCF2F923F924F925F926F927F928F9256
:102720009F92AF92BF92CF92DF92EF92FF920F9360
:102730001F93CF93DF93CDB7DEB7CA1BDB0B0FB66A
:10274000F894DEBF0FBECDBF09942A883988488827
:102750005F846E847D848C849B84AA84B984C884BD
:10276000DF80EE80FD800C811B81AA81B981CE0FB4
:10277000D11D0FB6F894DEBF0FBECDBFED01089599
:10278000DC0101C06D9341505040E0F70895FB011A
:102790009F01E8944230C4F04532B4F44A3029F441
:1027A00097FB1EF4909581959F4F642F77270E9489
:1027B0009916805D8A330CF0895D8193CB01009777
:1027C000A1F716F45DE251931082C9010C94FF1534
:1027D000AEE0B0E0EEEEF3E10C9497130D891E89A4
:1027E00086E08C831A8309838FEF9FE79E838D8316
:1027F0009E01275E3F4FCE0101966F89788DA9011A
:102800000E940C142F813885020F131FF8011082CB
:102810002E96E4E00C94B313ABE0B0E0E2E1F4E117
:102820000C9489133C012B015A01FC01178216827A
:10283000838181FD03C06FEF7FEFC6C19AE0892ECF
:102840001E010894211C311CF3012381F20123FD98
:10285000859123FF81912F01882309F4B2C185322C
:1028600039F423FD859123FF81912F01853229F4CD
:1028700090E0B3010E940F16E7CF982FFF24EE24BB
:102880009924FFE1FF15D0F09B3269F09C3228F4C7
:10289000903259F0933291F40EC09D3249F090334A
:1028A00069F441E024C052E0F52A84E0F82A28C007
:1028B00098E0F92A25C0E0E1FE2A22C0F7FC29C0F1
:1028C000892F80538A3070F4F6FE05C0989C902CB6
:1028D0001124980E15C0E89CE02C1124E80EF0E2BB
:1028E000FF2A0EC09E3229F4F6FC6BC140E4F42AA4
:1028F00007C09C3619F450E8F52A02C0983649F40E
:10290000F20123FD959123FF91912F01992309F065
:10291000B8CF892F8554833018F08052833038F433
:1029200044E050E0A40EB51E5FE359830FC0933618
:1029300031F0933779F0933509F056C020C0F50196
:102940008081898342E050E0A40EB51E610101E060
:1029500010E012C0F501C080D180F6FC03C06FEF1B
:102960007FEF02C0692D70E042E050E0A40EB51E7A
:10297000C6010E94F4158C015FE7F52214C0F50131
:10298000C080D180F6FC03C06FEF7FEF02C0692DDD
:1029900070E042E050E0A40EB51EC6010E94E915A9
:1029A0008C0150E8F52AF3FE07C01AC080E290E0DF
:1029B000B3010E940F16EA948E2D90E008171907B4
:1029C000A8F30EC0F601F7FC8591F7FE81916F0127
:1029D00090E0B3010E940F16E110EA9401501040FC
:1029E0000115110579F7EAC0943611F0993669F5A9
:1029F000F7FE08C0F501208131814281538184E0D6
:102A000090E00AC0F501808191819C01442737FD47
:102A10004095542F82E090E0A80EB91E9FE6F9225F
:102A200057FF09C050954095309521953F4F4F4F26
:102A30005F4FE0E8FE2ACA01B901A1012AE030E0B7
:102A40000E943B16D82ED21840C0953729F41F2D6E
:102A50001F7E2AE030E01DC01F2D197F9F3661F0D8
:102A6000903720F4983509F0ACC00FC0903739F09A
:102A7000983709F0A6C004C028E030E00AC0106111
:102A800014FD146020E130E004C014FD166020E164
:102A900032E017FF08C0F501608171818281938166
:102AA00044E050E008C0F50180819181BC0180E0E4
:102AB00090E042E050E0A40EB51EA1010E943B163A
:102AC000D82ED2188FE7F82EF122F6FE0BC05EEF5B
:102AD000F522D91438F4F4FE07C0F2FC05C08FEEDD
:102AE000F82202C01D2D01C0192DF4FE0DC0FE01FB
:102AF000ED0DF11D8081803319F499EEF92208C0A3
:102B00001F5FF2FE05C003C08F2D867809F01F5F9E
:102B10000F2DF3FC14C0F0FE0FC01E1510F09D2CFD
:102B20000BC09D2C9E0C911A1E2D06C080E290E0D9
:102B3000B3010E940F161F5F1E15C0F304C01E15BF
:102B400010F4E11A01C0EE2404FF0FC080E390E00E
:102B5000B3010E940F1602FF1DC001FD03C088E7EC
:102B600090E00EC088E590E00BC0802F867891F051
:102B700001FF02C08BE201C080E2F7FC8DE290E031
:102B8000B3010E940F1606C080E390E0B3010E94DB
:102B90000F169A94D914C0F3DA94F101ED0DF11DDA
:102BA000808190E0B3010E940F16DD20A9F706C0D6
:102BB00080E290E0B3010E940F16EA94EE20C1F784
:102BC00043CEF30166817781CB012B96E2E10C9431
:102BD000A513FC010590615070400110D8F7809555
:102BE00090958E0F9F1F0895FC01615070400190D9
:102BF0000110D8F7809590958E0F9F1F0895DC01E6
:102C0000FC01672F71917723E1F7329704C07C9123
:102C10006D9370836291AE17BF07C8F308950F9349
:102C20001F93CF93DF938C01EB018B8181FF1BC03E
:102C300082FF0DC02E813F818C819D81281739072D
:102C400064F4E881F9810193F983E88306C0E8859B
:102C5000F985802F0995892B31F48E819F8101960A
:102C60009F838E8302C00FEF1FEFC801DF91CF91CA
:102C70001F910F910895FA01AA27283051F12031B0
:102C800081F1E8946F936E7F6E5F7F4F8F4F9F4F00
:102C9000AF4FB1E03ED0B4E03CD0670F781F891F42
:102CA0009A1FA11D680F791F8A1F911DA11D6A0F10
:102CB000711D811D911DA11D20D009F468943F91C3
:102CC0002AE0269F11243019305D3193DEF6CF01C2
:102CD0000895462F4770405D4193B3E00FD0C9F788
:102CE000F6CF462F4F70405D4A3318F0495D31FDF5
:102CF0004052419302D0A9F7EACFB4E0A695979548
:102D0000879577956795BA95C9F70097610571051D
:102D100008959B01AC010A2E069457954795379567
:102D20002795BA95C9F7620F731F841F951FA01DC1
:102D30000895AA1BBB1B51E107C0AA1FBB1FA61702
:102D4000B70710F0A61BB70B881F991F5A95A9F754
:0E2D500080959095BC01CD010895F894FFCFB9
:102D5E0025642563432020000000000000000000D1
:102D6E000001020203030303040404040404040424
:102D7E0005050505050505050505050505050505F5
:102D8E0006060606060606060606060606060606D5
:102D9E0006060606060606060606060606060606C5
:102DAE0007070707070707070707070707070707A5
:102DBE000707070707070707070707070707070795
:102DCE000707070707070707070707070707070785
:102DDE000707070707070707070707070707070775
:102DEE000808080808080808080808080808080855
:102DFE000808080808080808080808080808080845
:102E0E000808080808080808080808080808080834
:102E1E000808080808080808080808080808080824
:102E2E000808080808080808080808080808080814
:102E3E000808080808080808080808080808080804
:102E4E0008080808080808080808080808080808F4
:102E5E0008080808080808080808080808080808E4
:00000001FF
